:020000040000FA
:100000000C9462000C940A100C94E30F0C94891069
:100010000C9489100C9489100C948A000C948A001A
:100020000C948A000C948A000C948A000C948A0028
:100030000C948A000C948A000C948A000C948A0018
:100040000C94990F0C948A000C9457100C94311056
:100050000C948A000C948A000C948A000C948A00F8
:100060000C9493100C948A000000000024002700D8
:100070002A0000000000250028002B0000000000DE
:1000800023002600290004040404040404040202DA
:100090000202020203030303030301020408102007
:1000A0004080010204081020010204081020000012
:1000B0000008000201000003040700000000000027
:1000C0000000C21111241FBECFEFD8E0DEBFCDBFAC
:1000D00011E0A0E0B1E0E8E5FAE302C005900D927E
:1000E000A03EB107D9F723E0A0EEB1E001C01D9218
:1000F000AC3BB207E1F710E0C2E6D0E004C02197C4
:10010000FE010E94F01BC136D107C9F70E944712B9
:100110000C942A1D0C9400008230910538F0880F51
:10012000991F880F991F05970197F1F70895089572
:100130000895833081F028F4813099F08230A9F05D
:1001400008958730A9F08830C9F08430B1F48091E7
:1001500080008F7D03C0809180008F778093800026
:10016000089584B58F7784BD089584B58F7DFBCFC6
:100170008091B0008F778093B00008958091B00097
:100180008F7DF9CFCF93DF93E6EBF0E08491E2EA45
:10019000F0E0D491EEE8F0E0C491CC23A1F081111D
:1001A0000E949900EC2FF0E0EE0FFF1FE458FF4F84
:1001B000A591B491EC91ED2381E090E009F480E009
:1001C000DF91CF91089580E090E0FACF1F93CF9315
:1001D000DF93282F30E0F901E255FF4F8491F901B8
:1001E000E656FF4FD491F901EA57FF4FC491CC2353
:1001F000A9F0162F81110E949900EC2FF0E0EE0F6C
:10020000FF1FEE58FF4FA591B4918FB7F894EC9172
:10021000111108C0D095DE23DC938FBFDF91CF9101
:100220001F910895DE2BF8CFCF93DF9390E0FC0170
:10023000E656FF4F24918A579F4FFC0184918823F3
:10024000D1F090E0880F991FFC01E859FF4FA5916C
:10025000B491FC01EE58FF4FC591D49161110EC0CD
:100260009FB7F8948C91E22FE0958E238C93288190
:10027000E223E8839FBFDF91CF9108958FB7F89471
:10028000EC91E22BEC938FBFF6CF3FB7F8948091BF
:10029000580290915902A0915A02B0915B0226B582
:1002A000A89B05C02F3F19F00196A11DB11D3FBFAE
:1002B000BA2FA92F982F8827BC01CD01620F711D7D
:1002C000811D911D42E0660F771F881F991F4A9577
:1002D000D1F708958F929F92AF92BF92CF92DF9203
:1002E000EF92FF926B017C010E9445014B015C0182
:1002F000C114D104E104F104B9F00E944501681968
:1003000079098A099B09683E73408105910580F34C
:1003100021E0C21AD108E108F10888EE880E83E0D6
:10032000981EA11CB11CE4CFFF90EF90DF90CF90FE
:10033000BF90AF909F908F9008958091920390917D
:100340009303DC01ED91FC910084F185E02D09958A
:10035000892B09F4A6C060E070E0CB010E946A011D
:100360002091B0038091920390919303DC01ED9171
:10037000FC910284F385E02D21110BC00995809337
:100380009C038E37D1F68091B0038F5F8093B003CA
:10039000D4CF09959091B003E92FF0E0EE56FC4FD1
:1003A00082879230A9F09930C9F0913099F48F3F4B
:1003B00089F01092B00381E08093B2031092B503EC
:1003C0001092B4038093B6031092B70380E00895AF
:1003D000863079F79F5F9093B003AFCF8F3E49F798
:1003E00020919E0380919D03280F3327331FE091B6
:1003F0009F03C9018E0F911D2091A003280F392F53
:10040000311D4091A10350E0240F351F8091A203BC
:1004100090E06091A30370E0762F6627F091A4032B
:100420006F0F711D280F391F319521953109621702
:10043000730709F0BECF1092B003E13419F41092A3
:10044000B7032FC0E093B303542F4427840F951FA5
:100450009093B5038093B403EA53E63108F046C0A5
:10046000F0E0EB5CFD4F0C94F01B62026A024B0261
:100470004B02740254027202760274027402740215
:1004800074027402740274027402760274027402BA
:1004900074027402740285E08093B20381E0809359
:1004A000B6038091B603089580FF02C089E0F4CFBF
:1004B00081FF02C084E0F0CF83709927892B89F3F4
:1004C0008AE0EACF80FF02C087E0E6CF81FFE9CF74
:1004D00082E0E2CF80FF02C088E0DECF81FFE1CF83
:1004E00083E0DACF86E0D8CF8BE0D6CF81E080936F
:1004F000B2031092B5031092B4038093B6039FCF5A
:100500002FB7F89460915402709155028091560271
:10051000909157022FBF08958F929F92AF92BF92F2
:10052000CF92DF92EF92FF92CF936B017C010E94FA
:1005300080024B015C01C114D104E104F10441F4D7
:10054000C0909803D0909903E0909A03F0909B0399
:100550000E949D01C82F811118C00E948002681955
:1005600079098A099B09C616D706E806F906C0F478
:100570001092B0031092B2031092B5031092B4031C
:1005800081E08093B6031092B7038C2FCF91FF9038
:10059000EF90DF90CF90BF90AF909F908F90089595
:1005A00060E070E0CB010E946A01D2CF8093A90382
:1005B000272F30E07093AB036093AC034091A80306
:1005C0009091A703490F5527551F840F952F911D13
:1005D0004091AA03840F911D820F931F680F792FFA
:1005E000711D7195619571097093AD036093AE03B0
:1005F000442379F08091B703882359F060E070E0DC
:10060000CB010E946A0160E070E0CB010E948C0285
:10061000F1CF8091920390919303DC01ED91FC91D5
:100620000280F381E02D4AE050E066EA73E009952C
:100630000E948002609394037093950380939603C5
:10064000909397038091AA0391E0811101C090E0FB
:100650009093B703811106C06AE070E080E090E0FB
:100660000C946A0108950895AF92BF92CF92DF92E1
:10067000EF92FF920F931F93CF93DF936C017B0157
:100680008B01040F151FEB015E01AE18BF08C017E8
:10069000D10759F06991D601ED91FC910190F0815B
:1006A000E02DC6010995892B79F7C501DF91CF911E
:1006B0001F910F91FF90EF90DF90CF90BF90AF9080
:1006C0000895FC01538D448D252F30E0842F90E058
:1006D000821B930B541710F0CF960895019708953D
:1006E000FC01918D828D981761F0A28DAE0FBF2F06
:1006F000B11D5D968C91928D9F5F9F73928F90E05C
:1007000008958FEF9FEF0895FC01918D828D9817CA
:1007100031F0828DE80FF11D858D90E008958FEF07
:100720009FEF0895FC01918D228D892F90E0805CD0
:100730009F4F821B91098F739927089582EB92E056
:100740000E94920321E0892B09F420E0822F089572
:1007500080E090E0892B29F00E949E0381110C9487
:1007600000000895FC01A48DA80FB92FB11DA35A54
:10077000BF4F2C91848D90E001968F739927848FC1
:10078000A689B7892C93A089B1898C9183708064E4
:100790008C93938D848D981306C00288F389E02D85
:1007A00080818F7D80830895EF92FF920F931F9336
:1007B000CF93DF93EC0181E0888F9B8D8C8D981314
:1007C0001AC0E889F989808185FF15C09FB7F89420
:1007D000EE89FF896083E889F9898081837080646C
:1007E00080839FBF81E090E0DF91CF911F910F91B7
:1007F000FF90EF900895F62E0B8D10E00F5F1F4FC6
:100800000F731127E02E8C8D8E110CC00FB607FCD4
:10081000FACFE889F989808185FFF5CFCE010E9462
:10082000B203F1CFEB8DEC0FFD2FF11DE35AFF4F1B
:10083000F0829FB7F8940B8FEA89FB8980818062F0
:10084000CFCFCF93DF93EC01888D8823B9F0AA89AD
:10085000BB89E889F9898C9185FD03C0808186FD7B
:100860000DC00FB607FCF7CF8C9185FFF2CF8081CA
:1008700085FFEDCFCE010E94B203E9CFDF91CF918A
:1008800008950895FC0183858F3F19F061E00C9471
:10089000E6000895FC0180819181892B39F0A281C5
:1008A000B3819C9111968C919CBD8DBD83858F3FAA
:1008B00019F060E00C94E6000895BF92CF92DF92A9
:1008C000EF92FF920F931F93CF93DF93EC018881F8
:1008D0009981892B81F06EBD0DB407FEFDCF0EB559
:1008E000802FDF91CF911F910F91FF90EF90DF90BC
:1008F000CF90BF9008958885998511E0892B09F0E4
:1009000010E8BB24B394862F812309F0B12CF62E76
:100910002C813D814E815F8160E271EA87E090E049
:100920000E949419E22E00E0C22ED12CEE2019F084
:10093000C6010E948C008A85982F977F09F044C0D9
:100940008D858F3F89F09F2D912381E009F480E010
:100950008B1551F0EF85F8898F89992379F1908172
:10096000892B8083BB24B394E989FA898081998D8E
:10097000892B8083EE2019F0C6010E948C008E85A1
:100980008F3F39F0EB89FC898081988D892309F0AC
:10099000012BE989FA899081898D8095892380834B
:1009A00088859985892B09F067C0110F1111BECF79
:1009B0008E858F3F09F094CF0F2D92CF9081809537
:1009C00089238083B12CD0CF8C3099F58D858F3FD2
:1009D00049F0EF85F8898F899F2D912331F190811E
:1009E000892B8083E989FA899081898D8095892373
:1009F0008083EE2019F0C6010E948C00E989FA89F3
:100A00008081998D892B8083EE2019F0C6010E9488
:100A10008C008E858F3F21F2EB89FC898081988D37
:100A2000892309F4BDCF012BBBCF90818095892309
:100A3000D8CFE989FA898081998D892B8083EE202E
:100A400019F0C6010E948C008D858F3F49F0EF851B
:100A5000F8898F899F2D912359F09081892B80836C
:100A6000E989FA899081898D809589238083D1CF06
:100A7000908180958923F3CF169598CF8F929F927E
:100A8000AF92BF92CF92DF92EF92FF920F931F939C
:100A9000CF93DF937C014B016A01B22EA32E0E94FB
:100AA0004A04E401C80CD91CCC15DD0569F4CB2D32
:100AB000DA2D0C0F1D1FC017D10759F06FEFC701BA
:100AC0000E945D048993F7CF6991C7010E945D047C
:100AD000EBCFC7010E94420481E0DF91CF911F91CB
:100AE0000F91FF90EF90DF90CF90BF90AF909F90CD
:100AF0008F9008958F929F92AF92BF92CF92DF9284
:100B0000EF92FF920F931F93CF93DF937C01B62E4A
:100B1000A72E6A0149010E944A04E401080D191D2B
:100B2000C017D10761F4CB2DDA2DCC0EDD1ECC150C
:100B3000DD0551F06991C7010E945D04F8CF69910C
:100B4000C7010E945D04ECCFC7010E94420481E00E
:100B5000DF91CF911F910F91FF90EF90DF90CF9099
:100B6000BF90AF909F908F90089520910902260F1B
:100B70003327331F21323105ECF420918802FC0128
:100B800090E080E0243069F082E00895A0910902AD
:100B90002191AC0147515E4FA40FB52FB11D2C938D
:100BA0000196861798F380910902680F60930902F5
:100BB00080E0089581E008951092880281E080939A
:100BC00087021092620261E082E10E94E60061E029
:100BD00083E10E94E600E9EBF0E080818E7F808374
:100BE00080818D7F808388E48093B80085E4809342
:100BF000BC000895109261021092600210928F0260
:100C00001092B1020E94DC0587E990E090935F02A8
:100C100080935E0288E990E090935D0280935C028D
:100C20000895CF93DF9391E09093E8018823B9F082
:100C3000C091B800D091BA008091BC008A7B8093AB
:100C4000BC0060E082E10E94E60060E083E10E9477
:100C5000E6000E94DC05D093BA00C093B800DF9193
:100C6000CF9108958F929F92AF92BF92CF92DF92D1
:100C7000EF92FF920F931F93CF93DF93D091B10226
:100C8000D13208F0D7C0182FC091B0020E944501A0
:100C90006B017C018091880281116BC082E080939E
:100CA0008802109387028FEF80938602109285024C
:100CB000D0938402A0E9B2E0E4E6F2E080E0D81349
:100CC00091C01092630280916302CC0FC82BC09335
:100CD000630280916202813009F088C01092620242
:100CE0000E9445016B017C01809163028093BB00EF
:100CF00080918A0290918B02A0918C02B0918D021A
:100D0000892B8A2B8B2BA1F00E94450100918A022E
:100D100010918B0220918C0230918D026C197D090B
:100D20008E099F09061717072807390708F442C0DC
:100D30008091BC0083FDD8CF85EC8093BC000E94DD
:100D400045016B017C0180918802823009F450C01A
:100D5000809186028F3F09F46FC0809186028032B5
:100D600009F46CC080918602803309F469C084E084
:100D700026C080918A0290918B02A0918C02B09142
:100D80008D02892B8A2B8B2B09F484CF0E9445017D
:100D900080908A0290908B02A0908C02B0908D027D
:100DA0006C197D098E099F0986169706A806B90653
:100DB00008F070CF809189020E94110685E01092A0
:100DC0008F021092B10210928E02DF91CF911F918B
:100DD0000F91FF90EF90DF90CF90BF90AF909F90DA
:100DE0008F9008959D9191938F5F69CF85EEA5CFE8
:100DF00080918A0290918B02A0918C02B0918D0219
:100E0000892B8A2B8B2B09F49ECF0E9445010091E0
:100E10008A0210918B0220918C0230918D026C1904
:100E20007D098E099F09061717072807390708F05B
:100E30008ACFC0CF81E0C3CF80E0C1CF82E0BFCFF7
:100E400083E0BDCF1F93CF93DF93EA01122FDC0124
:100E500011968D919C91DC01ED91FC910280F381C2
:100E6000E02D0995C817D90729F4812F0E94320671
:100E700091E0811190E0892FDF91CF911F9108952A
:100E8000AF92BF92CF92DF92EF92FF920F931F9398
:100E9000CF93DF9300D0CDB7DEB7DC01211103C0C3
:100EA0001A962C911A97253008F043C051964D930D
:100EB0005D936D937C93549790E080E0E22EF12C4B
:100EC0008E159F05B4F41C962C911C9721110AC015
:100ED000FD01E80FF91F4587452F562F672F77270C
:100EE0000196EECFF701E81BF90BEA0FFB1F4487D1
:100EF000F3CF6D018DE0C80ED11C18969C91189708
:100F000019968C91199799838A83AD90BC9011970B
:100F1000A114B10409F441C01B960C9110E0980192
:100F20002E0D3F1DD50114968D919C91821793072C
:100F300010F480E016C0F50181819281208131E0BA
:100F400030938E022093B00210928F021092B10261
:100F50000115110599F421E0A701B601C5010E9410
:100F600022070F900F90DF91CF911F910F91FF906B
:100F7000EF90DF90CF90BF90AF900895DC01ED919E
:100F8000FC910280F381E02DA801BE016F5F7F4FCD
:100F900009950817190769F6DECF1296ED91FC91B5
:100FA0001397309749F116962D913C9117971B9600
:100FB0000C9110E02330310571F48E7F89839A8380
:100FC0000F5F1F4F9E012F5F3F4FA701B601CF015B
:100FD0000E947A05C6CF2115310519F49F779983B0
:100FE000F1CF2230310511F49068F9CF213031056D
:100FF00049F79F779064F3CF1496ED91FC91159784
:10100000309709F496CF8085882309F492CFA68083
:10101000B780A114B10409F48CCF870196011B9607
:101020004C91BE016F5F7F4F81859285F5010995D7
:1010300098CFCF93DF93EC018B818823A1F0888137
:1010400091E090938E028093B00210928F021092E2
:10105000B10281E00E94320691E0811190E0892F77
:10106000DF91CF9108950E94FA0581E08B83CE0134
:101070000E941908982F8111E2CFF1CF0895E091D5
:10108000610280916002E81730F4F0E0E45DFD4F0A
:10109000808190E008958FEF9FEF08959091610215
:1010A000809160022FEF3FEF981748F4E92FF0E0AE
:1010B000E45DFD4F208130E09F5F90936102C901A4
:1010C00008958091600290916102891B990B0895A7
:1010D000CF92DF92EF92FF920F931F93CF93DF9304
:1010E0007C01CB018A0120918E02222389F0EB0141
:1010F0006B01C40ED51ECC15DD0569F06991D701D1
:10110000ED91FC910190F081E02DC7010995F3CF9D
:10111000642F0E94B505C801DF91CF911F910F91F7
:10112000FF90EF90DF90CF900895CF93DF931F92C1
:10113000CDB7DEB7698320918E022223F9F020918A
:10114000B102203258F021E030E0FC0133832283E9
:1011500090E080E00F90DF91CF91089580918F0211
:10116000E82FF0E0E057FD4F998190838F5F8093E7
:101170008F028093B10281E090E0ECCF61E0CE017C
:1011800001960E94B505F7CFFC01248131E0309330
:101190008E022093B00210928F021092B1028485C9
:1011A000682B8CE593E00E94950881E00C94320650
:1011B00090E080E0089508950895CF92DF92EF9235
:1011C000FF920E9480026B017C018091E40190916A
:1011D000E501A091E601B091E701A7019601281B66
:1011E000390B4A0B5B0BCA01B9010E94A41A2AE011
:1011F00037ED43EA5BE30E94321B18167CF4C09281
:10120000E401D092E501E092E601F092E7018091DD
:101210000601843041F483B78E7F83BFFF90EF9047
:10122000DF90CF90089588E198E00FB6F894A895E4
:10123000809360000FBE90936000FFCFCF92DF924B
:10124000EF92FF9280910601882311F0833079F5A7
:101250000E9480026B017C018091E0019091E1018C
:10126000A091E201B091E301A7019601281B390B7F
:101270004A0B5B0BCA01B9010E94A41A2AE037EDA0
:1012800043EA5BE30E94321B18168CF480914F02F4
:101290009091500201969093500280934F02C09219
:1012A000E001D092E101E092E201F092E301FF90CF
:1012B000EF90DF90CF900895CF92DF92EF92FF9260
:1012C000782F8FE00E94D6020E9480026B017C0181
:1012D0000E949D01811110C00E9480026C197D093D
:1012E0008E099F09613777418105910588F3FF9049
:1012F000EF90DF90CF9008951092B6038091B203E3
:10130000853051F7F4CF8F929F92AF92BF920F9397
:101310001F93CF93DF93CDB7DEB7A1970FB6F894A5
:10132000DEBF0FBECDBF19A2423008F44AE08E01E5
:101330000F5D1F4F842E912CB12CA12CA50194017F
:101340000E949419E62FB901CA01EA3044F5E05D24
:10135000D801EE938D01232B242B252B79F790E0D8
:1013600080E0109769F0FD0101900020E9F73197C6
:10137000AF014A1B5B0BBD018FE493E00E94340375
:10138000A1960FB6F894DEBF0FBECDBFDF91CF910F
:101390001F910F91BF90AF909F908F900895E95C3F
:1013A000D7CFFC0101900020E9F73197AF01481B2E
:1013B000590BBC018FE493E00C943403CF93C82FF6
:1013C0000E94521965E070E00E94DC1B60E08530ED
:1013D000910520F48D5D9E4FFC01608182E0C33059
:1013E00099F040F462E0C13071F063E0C23059F02E
:1013F00061E009C065E0C53031F067E0C53018F044
:1014000066E0C630A9F781E0CF910C945C090F9398
:101410001F93CF938C01C62F0E94C4086C2F646069
:10142000C8010E94C4086C2F6B7FC8010E94C408C9
:1014300083EC90E00197F1F7CF911F910F91089500
:101440000F931F93CF93DF938C01D62FC42F607F10
:10145000642B0E94070A80E1D89FB00111246C2BF5
:10146000C801DF91CF911F910F910C94070ACF9380
:10147000DF93CDB7DEB728970FB6F894DEBF0FBE67
:10148000CDBF98E0E1E1F1E0DE01119601900D920F
:101490009A95E1F790915703961708F46FEF262F6E
:1014A00030E0220F331F41E050E04C0F5D1F240F4E
:1014B000351FF9016081680F606840E08FE493E0B8
:1014C00028960FB6F894DEBF0FBECDBFDF91CF9147
:1014D0000C94200A40E061E08FE493E00E94200A2F
:1014E0008BE39FE10197F1F780915803882321F066
:1014F00060E080E00C94370A0895CF93DF93EC010D
:101500000E946A0A60E080E00E94370ACE01DF9103
:10151000CF910C94D10941E00E94200A81E090E033
:1015200008952F923F924F925F926F927F928F9287
:101530009F92AF92BF92CF92DF92EF92FF920F9362
:101540001F93CF93DF9300D000D0CDB7DEB7DC017F
:101550004B01042F18969C91189719968C91199706
:1015600099838A832D903C9011972114310409F4BA
:101570003AC11B964C9150E0D10114968D919C91EB
:1015800084179507C8F4D12C8D2D0F900F900F90D4
:101590000F90DF91CF911F910F91FF90EF90DF900F
:1015A000CF90BF90AF909F908F907F906F905F9003
:1015B0004F903F902F900895F101808191E090939A
:1015C0008E028093B00210928F021092B10220E03E
:1015D000BE016F5F7F4FC1010E942207D82E882372
:1015E00091F2802F90E09C838B83B12CA12C01E0A1
:1015F000AB81BC81AA16BB0638F6F10184819581C6
:101600007D01EA18FB088E159F0508F47C01D101C5
:10161000CC900E9445012B013C01809188028111F0
:1016200072C01E2D113208F010E20093880221E0F2
:101630008B819C818E199F09A816B90608F420E0B9
:1016400020938702BFEFB0938602109285028FEF3E
:10165000810F809384020093630280916302CC0C1B
:10166000C82AC092630280916202813009F092C060
:10167000109262020E9445012B013C01809163029D
:101680008093BB0080918A0290918B02A0918C0282
:10169000B0918D02892B8A2B8B2BA1F00E944501E2
:1016A00020918A0230918B0240918C0250918D02E0
:1016B00064197509860997092617370748075907D6
:1016C00008F442C08091BC0083FDD8CFE5ECE093E4
:1016D000BC000E9445012B013C01809188028130B1
:1016E00009F45CC080918502811710F41091850285
:1016F000A4E6B2E0ECE2F2E080E0811751F19D91C6
:1017000091938F5FFACF80918A0290918B02A09182
:101710008C02B0918D02892B8A2B8B2B09F47DCF03
:101720000E94450120918A0230918B0240918C02E7
:1017300050918D0264197509860997092617370794
:101740004807590708F069CF809189020E94110665
:1017500010E010926102109360021E151F0409F040
:1017600012CF34016A0C7B1C2301C2018619970930
:101770008E159F05A8F5D10111968D919C91DC01E4
:10178000ED91FC910284F385E02D0995F20181939E
:101790002F01EBCFF5EEF093BC009BCF80918A0236
:1017A00090918B02A0918C02B0918D02892B8A2B93
:1017B0008B2B09F492CF0E94450120918A0230912F
:1017C0008B0240918C0250918D0264197509860933
:1017D0009709261737074807590708F07ECFB4CF77
:1017E000AE0CBF1C05CF1296ED91FC91139730976C
:1017F00049F116962D913C91179710E01B964C914C
:1018000050E02330310571F4816089839A834F5F02
:101810005F4F9401BE016F5F7F4FCF010E943E0575
:10182000D82EB2CE2115310519F490689983F1CFE5
:101830002230310511F49F77F9CF2130310549F776
:10184000906CF4CF1496ED91FC911597309709F4B4
:101850009ACE8085882309F496CEE480F580E11441
:10186000F10409F490CE10E09B011B964C91BE014F
:101870006F5F7F4F81859285F7010995D1CFCF9317
:10188000DF93EC01BC01635F7F4F4A850E94910AA0
:10189000882301F14A8550E030E020E060E070E00C
:1018A000CB0124173507CCF4982F872F762F662786
:1018B000EC85E1110AC0FA01E21BF30BEC0FFD1FEE
:1018C000E4856E2B2F5F3F4FECCFFE01E20FF31F3D
:1018D000E585F7CF6FEF7FEFCB01DF91CF910895D3
:1018E0008F929F92AF92BF92CF92DF92EF92FF9230
:1018F0000F931F93CF93DF93EC014A015B01888123
:1019000099810E943F0C2A8101E010E002C0000F83
:10191000111F2A95E2F701501109012E000C220B2C
:10192000330BAB81680179010A2E04C0CC0CDD1C9D
:10193000EE1CFF1C0A94D2F7C094D094E094F0946B
:10194000C622D722E822F922E881F981B901A8014B
:10195000482159216A217B2104C0440F551F661F6D
:10196000771FAA95D2F74C295D296E297F292285F8
:10197000CF01DF91CF911F910F91FF90EF90DF90FA
:10198000CF90BF90AF909F908F900C944007CF93D3
:10199000DF93CDB7DEB769970FB6F894DEBF0FBE01
:1019A000CDBFE8E6F3E0428D538D208D318D1A8A4C
:1019B0001B8A1C8A1D8A5C834B833A832983188681
:1019C0001F8221E02C8740E250E05A8749871D861C
:1019D0002B879E012F5F3F4F3F8B2E8B24E0288F5C
:1019E000298FAC0170E060E0CE0146960E94700C39
:1019F00069960FB6F894DEBF0FBECDBFDF91CF91D1
:101A000008950F931F93CF93DF93EC018881998101
:101A10000E943F0CAB01BC012A8181E090E002C032
:101A2000880F991F2A95E2F70197092E000CAA0B3F
:101A3000BB0B2B8104C076956795579547952A95E2
:101A4000D2F78C019D010423152326233723C901D6
:101A5000B801DF91CF911F910F9108958F929F92BE
:101A6000AF92BF92CF92DF92EF92FF920F931F93AC
:101A7000CF93DF93CDB7DEB7CD54D1090FB6F8942D
:101A8000DEBF0FBECDBF8C01FC01208D318D88EAF9
:101A90002115310509F488EEF801428D538D1CAEF5
:101AA0001DAE1EAE1FAE5EA74DA73CA72BA71AAA60
:101AB00019AAFF24F394FEAA90E09CAB8BAB1FAA5B
:101AC00086E08DAB46E0BE01605C7F4FCE018B9619
:101AD0000E94910A22968EAD9FAD2297F8019383C2
:101AE000828324968EAD9FAD24979583848326961A
:101AF0008EAD9FAD269797838683228D338D808D03
:101B0000918D1A8A1B8A1C8A1D8A3C832B839A8397
:101B1000898318861F82FC8633E2A32EB12CBA86F5
:101B2000A9861D86FB86CE0101966C019F8B8E8B4C
:101B300082E0888F84E0898F4E0196E1890E911CA6
:101B4000C4010E94010DE62EF801428D538D208DB7
:101B5000318D1FA218A619A61AA6598F488F3F8B40
:101B60002E8B1D8E1C8EF9A280E290E09F8F8E8FAF
:101B70001AA2F8A22C969FAE8EAE2C972D96FFAE91
:101B80002D9783E02E968FAF2E971A8A1B8A1C8A78
:101B90001D8A5C834B833A83298318861F82FC86C7
:101BA000BA86A9861D86FB862896DFAECEAE28971C
:101BB0002996FFAE29972A968FAF2A97CE01865B8A
:101BC0009F4F0E94010D4B015C01CE018A5B9F4F2C
:101BD0000E94010D8A9489288A288B2809F47DC0E7
:101BE000613071058105910509F47EC081E064E0F2
:101BF000EE2069F021E068E0E21649F092E060E151
:101C0000E91629F0E3E061E0EE1201C060E3823002
:101C100009F06CC066956695C12CD12C2AE7E22E9E
:101C200026E4F22E70E090E080E00E94A61A4B01BC
:101C30005C01F80162817381072E000C880B990BFF
:101C40000E94A61AA70196010E94321AA5019401CA
:101C50000E94371BF80160877187828793876481B0
:101C60007581072E000C880B990B0E94A61AA701FC
:101C700096010E94321AA50194010E94371BF801B7
:101C8000648775878687978766817781072E000C22
:101C9000880B990B0E94A61AA70196010E94321A7E
:101CA000A50194010E94371BF801608B718B828B18
:101CB000938BC35BDF4F0FB6F894DEBF0FBECDBF73
:101CC000DF91CF911F910F91FF90EF90DF90CF9018
:101CD000BF90AF909F908F900895613071058105FE
:101CE000910511F080E083CF82E081CF813049F00F
:101CF000660F660FC12CD12C9AE7E92E98E4F92ED5
:101D000091CFC12CD12C8AE7E82E87E4F82E8ACF18
:101D10000F931F93CF938C01C62F0E946A0A60E035
:101D200080E00E94370AC8010E94D10961E080E08A
:101D30000E94370A86E691E00E94D1096C2F70E07C
:101D400090E080E04AE0CF911F910F910C948309BD
:101D5000CF93C82F61E080E00E94370A8EE691E0C1
:101D60000E94D10961E087E00E94370A6C2F70E081
:101D700090E080E04AE0CF910C94830985ED809358
:101D8000BC0080918A0290918B02A0918C02B0914C
:101D90008D020796A11DB11D23E0B695A7959795D5
:101DA00087952A95D1F72091BC0024FD03C010929D
:101DB0008802089540918A0250918B0260918C02B2
:101DC00070918D02452B462B472B69F30097A10597
:101DD000B10541F02AE22A95F1F700C00197A10967
:101DE000B109E1CF809189020C9411060C94921CE8
:101DF0000F931F93CF93DF938C01EB0188E2FB01DC
:101E000011928A95E9F74BE050E069E771E0CE0165
:101E10000E941B1D1B8681E090E0A0E0B0E08C8753
:101E20009D87AE87BF87F80142A153A164A175A128
:101E3000488B598B6A8B7B8B8C8B9D8BAE8BBF8B2E
:101E40001CA21DA21EA21FA2188E198E1A8E1B8EF6
:101E50001C8E1D8E1E8E1F8E18A219A21AA21BA2E6
:101E6000DF91CF911F910F9108950F931F93CF93FF
:101E7000DF938C01EB01FB01349680E2DF011D92C0
:101E80008A95E9F784E290E0A0E0B0E08883998346
:101E9000AA83BB83F80182A193A1A4A1B5A18C83DD
:101EA0009D83AE83BF8381E090E0A0E0B0E08887AF
:101EB0009987AA87BB87188A198A1A8A1B8AC80138
:101EC0000E942E0D2AE038EE4CE151E4D80118961C
:101ED0006D917D918D919C911B970E94371B6C8B0E
:101EE0007D8B8E8B9F8B2AE038EE4CE151E4F8011C
:101EF00064857585868597850E94371B688F798FE5
:101F00008A8F9B8F2AE038EE4CE151E4D80150963D
:101F10006D917D918D919C9153970E94371B6C8F91
:101F20007D8F8E8F9F8F81E0DF91CF911F910F91D9
:101F300008951F920F920FB60F9211242F933F9383
:101F40008F939F93AF93BF938091540290915502CA
:101F5000A0915602B09157023091530223E0230F13
:101F60002D3758F50196A11DB11D20935302809382
:101F7000540290935502A0935602B0935702809159
:101F8000580290915902A0915A02B0915B020196B9
:101F9000A11DB11D8093580290935902A0935A023B
:101FA000B0935B02BF91AF919F918F913F912F9121
:101FB0000F900FBE0F901F90189526E8230F0296E2
:101FC000A11DB11DD2CF1F920F920FB60F921124F7
:101FD0002F933F934F935F936F937F938F939F9331
:101FE000AF93BF93EF93FF93E0910201F091030150
:101FF0000995FF91EF91BF91AF919F918F917F9143
:102000006F915F914F913F912F910F900FBE0F9065
:102010001F9018951F920F920FB60F9211242F93B5
:102020003F934F935F936F937F938F939F93AF9360
:10203000BF93EF93FF93E0910001F09101010995A7
:10204000FF91EF91BF91AF919F918F917F916F9190
:102050005F914F913F912F910F900FBE0F901F9066
:1020600018951F920F920FB60F9211242F933F9342
:102070004F935F936F937F938F939F93AF93BF9390
:10208000EF93FF9382EB92E00E94B203FF91EF91F6
:10209000BF91AF919F918F917F916F915F914F9180
:1020A0003F912F910F900FBE0F901F9018951F9288
:1020B0000F920FB60F9211242F938F939F93EF934C
:1020C000FF93E091C202F091C3028081E091C802C7
:1020D000F091C90282FD1BC090818091CB028F5F7D
:1020E0008F732091CC02821741F0E091CB02F0E097
:1020F000EE54FD4F958F8093CB02FF91EF919F910E
:102100008F912F910F900FBE0F901F901895808187
:10211000F4CF1F920F920FB60F9211240F900FBEA3
:102120000F901F9018951F920F920FB60F921124C7
:102130002F933F934F935F936F937F938F939F93CF
:10214000AF93BF93EF93FF938091B900887F803660
:1021500009F44AC0F0F5883209F4A7C018F58031B7
:1021600009F49BC0B8F4882309F4F9C0883009F455
:1021700094C0FF91EF91BF91AF919F918F917F910B
:102180006F915F914F913F912F910F900FBE0F90E4
:102190001F901895883109F488C0803251F78093D8
:1021A000860214C0803409F49DC040F48033B9F332
:1021B0008833F9F68093860285ECB0C0803509F447
:1021C00085C0883509F496C0883499F60E94BE0E01
:1021D000D0CF883909F48CC038F5883729F050F40D
:1021E000883611F0803729F683E0809388021092B8
:1021F0002B0257C0883809F47BC0803919F0803829
:1022000009F0B7CF80912B02803208F071C0E091C5
:102210002B0281E08E0F80932B028091BB00F0E0B7
:10222000E55FFD4F80833DC0803B39F0E0F4803AAC
:1022300009F479C0883A09F09CCF84E08093880241
:1022400010920A0210920902E0915E02F0915F0280
:1022500009958091090281110FC081E080930902E4
:102260001092E90109C0803C09F4A6CF883C09F42A
:10227000A3CF883B09F07DCFE0910A0281E08E0F69
:1022800080930A02F0E0E751FE4F80818093BB000B
:1022900090910A028091090229C080916302809383
:1022A000BB0085EC8093BC0064CF90918502809147
:1022B0008402981758F5E091850281E08E0F809393
:1022C0008502F0E0EC59FD4F8081E9CFE091850275
:1022D00081E08E0F809385028091BB00F0E0EC5985
:1022E000FD4F808390918502809184029817C8F2F7
:1022F00085E8D8CFE091850281E08E0F809385023A
:102300008091BB00F0E0EC59FD4F80838091870203
:1023100081115CCF81E08093620284EA8093BC00EB
:102320001092880226CF85EC8093BC001092880220
:1023300080912B02803230F4E0912B02F0E0E55FD7
:10234000FD4F108260912B0270E0E0915C02F091F1
:102350005D028BE092E0099510922B020ACF109259
:10236000860234CF80910401909105018F3191054F
:1023700038F488EC90E0909305018093040108956F
:102380004E97F9CFCF93DF93E2EBF2E01382128204
:1023900048EE53E060E070E04483558366837783C2
:1023A0008CE291E09183808385EC90E0958784872F
:1023B00084EC90E09787868780EC90E0918B808B0F
:1023C00081EC90E0938B828B82EC90E0958B848BF8
:1023D00086EC90E0978B868B118E128E138E148E66
:1023E0008CE593E0FC01138212824483558366835B
:1023F00077832EE331E031832083C2E9D3E044EFD9
:1024000051E060E070E04E835F83688779872AE05F
:10241000E9E1F1E0A6EAB3E001900D922A95E1F737
:102420001E8E32E03F8F1CA21DA2E8E6F3E04CE5D1
:1024300051E051834083118E108E138E128E2FEF38
:10244000258F268F278F20A34FEF5FEFBA0142A37E
:1024500053A364A375A340E251EA67E070E046A38A
:1024600057A360A771A7958B848BEFE4F3E01382E9
:10247000128280E591E091838083118687E28483D4
:1024800080E1828733871486DF91CF910895CF93BF
:10249000DF93CDB7DEB7C454D1090FB6F894DEBFD1
:1024A0000FBECDBF789484B5826084BD84B5816051
:1024B00084BD85B5826085BD85B5816085BD80910F
:1024C0006E00816080936E00109281008091810087
:1024D000826080938100809181008160809381007F
:1024E000809180008160809380008091B100846041
:1024F0008093B1008091B00081608093B0008091A2
:102500007A00846080937A0080917A008260809360
:102510007A0080917A00816080937A0080917A00BD
:10252000806880937A001092C10084B7877F84BF4F
:102530000FB6F894A8958091600088618093600040
:10254000109260000FBE60E088E00E94140160E01D
:1025500082E00E94140161E086E00E94140161E0C3
:1025600085E00E94140160E083E00E94140160E0B5
:1025700087E00E94140161E088E00E94E600B8E173
:10258000DB2ED092890383E380938403E0907C0365
:10259000F0907D03E114F10409F494C186E090E029
:1025A0000E94F61B8C01DC01DC921296FC92EE92EA
:1025B000119713961C92139780E290E015969C93C6
:1025C0008E93149710938103009380030E94FA0561
:1025D00081E0F8018383C8010E94190881111CC29F
:1025E0002091820330918303809180039091810335
:1025F0001A8A1B8A1C8A1D8A3C832B839A838983AF
:1026000018861F8281E08C8723E230E03A87298791
:102610001D868B87CE0101969F8B8E8B12E0188FC3
:1026200084E0898F40E050E0BA01CE0146960E94D6
:10263000700C6FE070E080E090E00E946A0184E03E
:1026400090E00E94C70CE091C202F091C302108397
:10265000E091BE02F091BF021082E091C002F091C1
:10266000C1028FEC80831092CA02E091C602F09101
:10267000C70286E08083E091C402F091C5028081A8
:1026800080618083E091C402F091C50280818860FE
:102690008083E091C402F091C502808180688083CC
:1026A000E091C402F091C50280818F7D808360ED4E
:1026B00077E080E090E00E946A0182EB92E09093E4
:1026C0009303809392031092AA0370E060E08CE081
:1026D0000E94D60260ED77E080E090E00E948C02DC
:1026E00068EC70E080E090E00E946A011092B6030E
:1026F00084EF91E0A0E0B0E0809398039093990379
:10270000A0939A03B0939B0364E170E086E00E947B
:10271000D60270E060E087E00E94D60262E070E0DE
:1027200089E00E94D60268EC70E080E090E00E94B0
:102730006A010E94FA051092540380915A03823074
:1027400018F098E0909354038093570362E370E08D
:1027500080E090E00E946A0160915B038FE493E067
:102760000E94C40868EE73E080E090E00E946A0175
:1027700060E38FE493E00E94070A0BE416E4C801CB
:102780000197F1F760E38FE493E00E94070AC80124
:102790000197F1F760E38FE493E00E94070A83E575
:1027A00092E00197F1F760E28FE493E00E94070A5C
:1027B00060915403606240E08FE493E00E94200A3D
:1027C00084E08093550340E06CE08FE493E00E9446
:1027D000200A0E946A0A82E08093560340E066E085
:1027E0008FE493E00E94200A40E062E08FE493E0EF
:1027F0000E94200A8BE39FE10197F1F788E0809324
:102800005B0360E08FE493E00E94C4080E946A0AC0
:1028100060E080E00E94370A80E891E00E94D109E0
:1028200061E080E00E94370A8DE891E00E94D109C2
:1028300083E480937C0080917A00806480937A00A6
:1028400080917A0086FDFCCF80917800909179008C
:102850000E94571960ED77E080E090E00E946A01E5
:1028600061E086E00E94E6008EE199E0909301012C
:102870008093000180916900836080936900E89AE9
:102880008DED98E09093030180930201809169009F
:102890008C6080936900E99A83E08CBB789404E0B3
:1028A00010E0E0910601E73008F08BC2F0E0E55A55
:1028B000FB4E0C94F01BEE161B17CE172218861633
:1028C000F218FC18F0908503FFEFFF1609F4A4C07E
:1028D0001091880380908E0390908F03A0909003B6
:1028E000B09091038CE190E01F3F09F050C10E942D
:1028F000F61B6C0180917E0390917F03D6011B969D
:10290000FC921B971E961C931E971D961C931D9759
:102910001C961C931C9711969C938E935B961C920D
:1029200082E090E00E94F61BFC0140E052E16AE781
:1029300070E090E084169506A606B70640F47695FA
:102940006795579547959F5F9630A1F797E0892F38
:10295000806A86958083909591709183D6011396B5
:10296000FC93EE931297F60184829582A682B78239
:1029700081E090E0918780871286D0928303C09295
:102980008203009182031091830361E08F2D0E94E6
:10299000140161E0D8011B968C910E94E600F801B9
:1029A00080819181892B09F48CC1FFB6F8948091C4
:1029B0004E02811127C0E0E9F0E08491E4EAF0E002
:1029C0009491E82FF0E0EE0FFF1FE859FF4FA5911B
:1029D000B491EC91E92321F461E08AE00E94E600E1
:1029E00061E08AE00E9414018CB580618CBD8CB5D9
:1029F00080648CBD61E08DE00E94140161E08BE099
:102A00000E94140180914E028F5F80934E02FFBEA0
:102A100081E0D8015B968C932091820330918303EF
:102A200080918003909181031A8A1B8A1C8A1D8AD7
:102A30003C832B839A83898318861F8211E01C872D
:102A40008FE090E09A8789871D861B87FE0131966B
:102A50007F01CF010E943F0C809184038613C0CD7B
:102A600020918203309183038091800390918103B0
:102A70001CAE1DAE1EAE1FAE3EA72DA79CA78BA7FA
:102A80001AAA19AA1EAB80E290E09CAB8BAB1FAADE
:102A90001DAB20E047E050E060E070E0CE018B9697
:102AA0000E94400787E090E00E94C70C20918203BB
:102AB0003091830380918003909181031FA218A617
:102AC00019A61AA6398F288F9F8B8E8B1D8E1C8E70
:102AD00019A383E290E09F8F8E8F1AA218A320E0A3
:102AE00048E850E060E070E0CE0146960E94400762
:102AF0002091820330918303809180039091810320
:102B00001A8A1B8A1C8A1D8A3C832B839A83898399
:102B100018861F821C8782E290E09A8789871D862B
:102B20001B872296FFAEEEAE229723961FAF239708
:102B300084E024968FAF249741E050E060E070E09D
:102B4000CE01805C9F4F0E94700C209182033091D7
:102B5000830380918003909181031A8A1B8A1C8AC7
:102B60001D8A3C832B839A83898318861F821C8746
:102B70008FE190E09A8789871D861B8720E040E8D7
:102B800050E060E070E0C7010E94400729CD0E943C
:102B9000F61BDC01209186038091870311961C921D
:102BA0001E9213961C921E9212971B96FC921B97D4
:102BB0001C961C931C971E968C931E971D962C9307
:102BC0001D974F2D0F2C000C550BFA01EA57FF4FA4
:102BD000E491F0E0EE0FFF1FEE58FF4F6591749106
:102BE00056967C936E935597FA01E656FF4FE49103
:102BF0005A96EC935A972F3FC9F0022E000C330BD4
:102C0000F901EA57FF4FE491F0E0EE0FFF1FEE5895
:102C1000FF4F4591549150965C934E931F97F90145
:102C2000E656FF4FE4915796EC9357978F3FC9F0C4
:102C3000082E000C990BFC01EA57FF4FE491F0E0DD
:102C4000EE0FFF1FE458FF4F2591349154963C93AB
:102C50002E935397FC01E656FF4FE4915896EC9360
:102C60005897812F110F990BFC01EA57FF4FE49100
:102C7000F0E0EE0FFF1FEE58FF4F25913491529672
:102C80003C932E935197FC01E656FF4FE4915996E1
:102C9000EC93599714968D929D92AD92BC92179792
:102CA00081E090E019969C938E9318971A961C9247
:102CB0001A975B961C925B97B0938303A093820351
:102CC00060CE61E084850E941401F80182858B7FCB
:102CD000D1F460E084850E94E600F80185858F3F8D
:102CE00049F061E00E94140161E0D8011D968C91C9
:102CF0000E94E600F80186858F3F09F489CE60E0E6
:102D00000E94140185CE61E08485E5CF67E071E023
:102D10008FE00E94D60286E991E00E947D0A63E876
:102D200076E080E090E00E946A018CE991E00E94E8
:102D30007D0A63E876E080E090E00E946A0182EA22
:102D400091E00E947D0A63E876E080E090E00E94D6
:102D50006A0182EB92E00E949203892B29F082EBB8
:102D600092E00E947003F5CF0E946A0A60E080E062
:102D70000E94370A8AEA91E00E94D10983B7817FD5
:102D8000846083BF83B7816083BF889582EB92E0C4
:102D90000E949203892B29F082EB92E00E9470033B
:102DA000F5CF0E946A0A809152020E94A80E0E94EA
:102DB0005219B8010E94DC1B80930601F4E0F093E5
:102DC0005102E0E0F0E0EF2B09F46BCD0E949E038E
:102DD000882309F466CD0E94000063CD6091520201
:102DE00086EB91E00E94880E80E00E94DE096091EF
:102DF00004017091050190E080E00E946A018091D9
:102E00004F0290915002059770F0809152028B5FB3
:102E1000809352020E94A80E80915202833608F4D9
:102E2000B3C085E001C086E0809306011092500295
:102E300010924F02C6CF609152028BEB91E00E943C
:102E4000880E81E00E94DE092AE0222E312C812C9E
:102E5000912C5401240135017501640188E693E049
:102E60000E942E0D60916A0370916B0377FF03C07F
:102E7000719561957109072E000C880B990B0E94C2
:102E8000A61A9B01AC01C701B6010E94C6196B01CD
:102E90007C0160916C0370916D0377FF03C07195A5
:102EA00061957109072E000C880B990B0E94A61AD8
:102EB0009B01AC01C301B2010E94C6192B013C0168
:102EC00060916E0370916F0377FF03C071956195F8
:102ED0007109072E000C880B990B0E94A61A9B0102
:102EE000AC01C501B4010E94C6194B015C0180917F
:102EF0000401909105016AE070E00E94C81B90E017
:102F000080E00E946A0191E0291A310809F0A6CFF9
:102F100020E030E040E251E4C301B2010E94321AE5
:102F20002B013C0120E030E040E251E4C501B40156
:102F30000E94321A4B015C0120E030E040E251E493
:102F4000C701B6010E94321A20E030E040E856E4A2
:102F50000E94321B87FF59CF20E030E040E856E462
:102F6000C301B2010E94321B87FF4FCF20E030E047
:102F700040E856E4C501B4010E94321B87FF45CFEB
:102F8000A6E0A093060152CF0E945219B8010E94F8
:102F9000DC1B809306010E94B21148CF8091510240
:102FA000843031F462E370E080E090E00E946A01D6
:102FB0006091520281EC91E00E94880E61E085E010
:102FC0000E94E60082E00E94DE099AE0E92EF12CE0
:102FD000D12C0E94C200019711F4DD24D39480917A
:102FE0000401909105016AE070E00E94C81B90E026
:102FF00080E00E946A01B1E0EB1AF10851F7DD2090
:10300000E9F0809152028B5F809352020E94A80ED9
:1030100080915202833640F085E08093060160E0A3
:1030200085E00E94E600CDCE0E945219B8010E94B0
:10303000DC1B809306010E94B211F1CFE6E0E09321
:103040000601EDCF6091520287EC91E00E94880E5C
:1030500083E00E94DE098AE0282E312C25961FAEDF
:103060002597812C912C54012401350175016401AF
:1030700088E693E00E942E0D60916A0370916B03C5
:1030800077FF03C0719561957109072E000C880BBD
:10309000990B0E94A61A9B01AC01C701B6010E94C0
:1030A000C6196B017C0160916C0370916D0377FF11
:1030B00003C0719561957109072E000C880B990B5F
:1030C0000E94A61A9B01AC01C301B2010E94C6195D
:1030D0002B013C0160916E0370916F0377FF03C079
:1030E000719561957109072E000C880B990B0E9450
:1030F000A61A9B01AC01C501B4010E94C6194B017F
:103100005C010E94C200019721F4F1E02596FFAF17
:10311000259780914F0290915002892B21F081E0F8
:1031200025968FAF259780910401909105016AE063
:1031300070E00E94C81B90E080E00E946A0191E06C
:10314000291A310809F094CF20E030E040E251E440
:10315000C301B2010E94321A2B013C0120E030E091
:1031600040E251E4C501B4010E94321A4B015C01F6
:1031700020E030E040E251E4C701B6010E94321A7B
:1031800020E030E040E856E40E94321B87FF19C07F
:1031900020E030E040E856E4C301B2010E94321B57
:1031A00087FF0FC020E030E040E856E4C501B401DD
:1031B0000E94321B87FF05C02596AFAD2597AA2335
:1031C00049F080915202882329F085508093520261
:1031D0000E94A80E0E945219B8010E94DC1B809325
:1031E0000601EFCD609152028CEC91E00E94880EB6
:1031F00085E00E94DE09FFCF6091520285ED91E0EB
:103200000E94880E86E00E94DE09FFCF8F929F9277
:10321000AF92BF92CF92DF92EF92FF92CF93DF9364
:10322000EC01688179818A819B8161157105810535
:10323000910521F464E279ED8BE597E02DE133EF20
:1032400041E050E00E94621949015A019B01AC0122
:10325000A7EAB1E40E9481196B017C01ACEEB4EFE6
:10326000A50194010E948F19DC01CB018C0D9D1DDD
:10327000AE1DBF1DB7FF03C00197A109B0488883E9
:103280009983AA83BB839F77DF91CF91FF90EF90C3
:10329000DF90CF90BF90AF909F908F9008950E9445
:1032A0000619089587E091E00E9406190895B0E09C
:1032B000A0E08093070190930801A0930901B093C7
:1032C0000A010895052E97FB1EF400940E947919B7
:1032D00057FD07D00E94941907FC03D04EF40C94BC
:1032E000791950954095309521953F4F4F4F5F4F3D
:1032F000089590958095709561957F4F8F4F9F4F62
:1033000008950E94B619A59F900DB49F900DA49F9B
:10331000800D911D11240895B7FF0C9481190E940E
:103320008119821B930B0895A1E21A2EAA1BBB1BC5
:10333000FD010DC0AA1FBB1FEE1FFF1FA217B30781
:10334000E407F50720F0A21BB30BE40BF50B661F97
:10335000771F881F991F1A9469F76095709580955B
:1033600090959B01AC01BD01CF010895A29FB001D2
:10337000B39FC001A39F700D811D1124911DB29FA9
:10338000700D811D1124911D08955058BB27AA2747
:103390000E94DD190C94F81A0E94EA1A38F00E9473
:1033A000F11A20F039F49F3F19F426F40C94E71A2F
:1033B0000EF4E095E7FB0C94E11AE92F0E94091B3B
:1033C00058F3BA17620773078407950720F079F45A
:1033D000A6F50C942B1B0EF4E0950B2EBA2FA02D06
:1033E0000B01B90190010C01CA01A0011124FF27B2
:1033F000591B99F0593F50F4503E68F11A16F040AD
:10340000A22F232F342F4427585FF3CF46953795AB
:103410002795A795F0405395C9F77EF41F16BA0B70
:10342000620B730B840BBAF09150A1F0FF0FBB1F1E
:10343000661F771F881FC2F70EC0BA0F621F731F67
:10344000841F48F4879577956795B795F7959E3FC4
:1034500008F0B0CF9395880F08F09927EE0F979555
:10346000879508950E94461A0C94F81A0E94F11A42
:1034700058F00E94EA1A40F029F45F3F29F00C94BA
:10348000E11A51110C942C1B0C94E71A0E94091B91
:1034900068F39923B1F3552391F3951B550BBB2783
:1034A000AA2762177307840738F09F5F5F4F220FC8
:1034B000331F441FAA1FA9F335D00E2E3AF0E0E8BF
:1034C00032D091505040E695001CCAF72BD0FE2F09
:1034D00029D0660F771F881FBB1F2617370748079D
:1034E000AB07B0E809F0BB0B802DBF01FF27935855
:1034F0005F4F3AF09E3F510578F00C94E11A0C941E
:103500002C1B5F3FE4F3983ED4F38695779567953F
:10351000B795F7959F5FC9F7880F911D9695879589
:1035200097F90895E1E0660F771F881FBB1F6217A8
:1035300073078407BA0720F0621B730B840BBA0B66
:10354000EE1F88F7E0950895E89409C097FB3EF4D4
:1035500090958095709561957F4F8F4F9F4F9923E0
:10356000A9F0F92F96E9BB279395F695879577955E
:103570006795B795F111F8CFFAF4BB0F11F460FF1E
:103580001BC06F5F7F4F8F4F9F4F16C0882311F076
:1035900096E911C0772321F09EE8872F762F05C08A
:1035A000662371F096E8862F70E060E02AF09A9525
:1035B000660F771F881FDAF7880F9695879597F91A
:1035C000089597F99F6780E870E060E008959FEFA5
:1035D00080EC089500240A941616170618060906AA
:1035E000089500240A941216130614060506089579
:1035F000092E0394000C11F4882352F0BB0F40F401
:10360000BF2B11F460FF04C06F5F7F4F8F4F9F4F40
:10361000089557FD9058440F551F59F05F3F71F0C2
:103620004795880F97FB991F61F09F3F79F0879529
:103630000895121613061406551FF2CF4695F1DFB2
:1036400008C0161617061806991FF1CF8695710542
:10365000610508940895E894BB2766277727CB0176
:1036600097F908950E94A41B08F48FEF08950E9413
:103670004A1B0C94F81A0E94EA1A38F00E94F11AB8
:1036800020F0952311F00C94E11A0C94E71A112400
:103690000C942C1B0E94091B70F3959FC1F3950F8E
:1036A00050E0551F629FF001729FBB27F00DB11DC6
:1036B000639FAA27F00DB11DAA1F649F6627B00D56
:1036C000A11D661F829F2227B00DA11D621F739F3F
:1036D000B00DA11D621F839FA00D611D221F749F4D
:1036E0003327A00D611D231F849F600D211D822F94
:1036F000762F6A2F11249F5750409AF0F1F08823BB
:103700004AF0EE0FFF1FBB1F661F771F881F9150E7
:103710005040A9F79E3F510580F00C94E11A0C949B
:103720002C1B5F3FE4F3983ED4F38695779567951D
:10373000B795F795E7959F5FC1F7FE2B880F911D11
:103740009695879597F90895990F0008550FAA0B3C
:10375000E0E8FEEF16161706E807F907C0F01216A4
:103760001306E407F50798F0621B730B840B950BA7
:1037700039F40A2661F0232B242B252B21F40895FC
:103780000A2609F4A140A6958FEF811D811D089599
:10379000AA1BBB1B51E107C0AA1FBB1FA617B70777
:1037A00010F0A61BB70B881F991F5A95A9F7809593
:1037B0009095BC01CD01089597FB072E16F4009457
:1037C00007D077FD09D00E94C81B07FC05D03EF446
:1037D000909581959F4F0895709561957F4F0895BD
:1037E000EE0FFF1F0590F491E02D09940F931F93A6
:1037F000CF93DF938230910510F482E090E0E09166
:10380000BA03F091BB0330E020E0B0E0A0E03097D5
:1038100099F42115310509F44AC0281B390B2430CD
:103820003105D8F58A819B816115710589F1FB010C
:1038300093838283FE0111C04081518102811381F3
:1038400048175907E0F04817590799F4109761F0A5
:1038500012960C93129713961C933296CF01DF9118
:10386000CF911F910F9108950093BA031093BB035A
:10387000F4CF2115310551F04217530738F0A90153
:10388000DB019A01BD01DF01F801C1CFEF01F9CFE2
:103890009093BB038093BA03CDCFFE01E20FF31FD9
:1038A000819391932250310939832883D7CF209176
:1038B000B8033091B903232B41F420910D013091CD
:1038C0000E013093B9032093B80320910B0130917E
:1038D0000C012115310541F42DB73EB740910F0180
:1038E00050911001241B350BE091B803F091B903FE
:1038F000E217F307A0F42E1B3F0B2817390778F0C7
:10390000AC014E5F5F4F2417350748F04E0F5F1F25
:103910005093B9034093B803819391939FCFF0E004
:10392000E0E09CCFCF93DF930097E9F0FC01329762
:1039300013821282A091BA03B091BB03ED0130E073
:1039400020E01097A1F420813181820F931F2091F4
:10395000B8033091B9032817390709F061C0F09313
:10396000B903E093B803DF91CF910895EA01CE1730
:10397000DF07E8F54A815B819E0141155105B1F7EA
:10398000E901FB83EA8349915991C40FD51FEC17D4
:10399000FD0761F4808191810296840F951FE901F2
:1039A00099838883828193819B838A83F0E0E0E01E
:1039B00012968D919C9113970097B9F52D913C919A
:1039C0001197CD010296820F931F2091B803309179
:1039D000B9032817390739F6309751F51092BB0310
:1039E0001092BA03B093B903A093B803BCCFD383AA
:1039F000C28340815181840F951FC817D90761F494
:103A00004E5F5F4F88819981480F591F51834083D2
:103A10008A819B81938382832115310509F0B0CF80
:103A2000F093BB03E093BA039ECFFD01DC01C0CF4E
:103A300013821282D7CFFB01DC014150504048F085
:103A400001900D920020C9F701C01D9241505040D5
:103A5000E0F70895F894FFCF33033303B80B040164
:103A60000000000000BC038000000040001400546F
:103A7000007EFF06000100000000EF0102030405C4
:103A800000000000D4033403610321049203700397
:103A900084030000000095086808D8083E08610803
:103AA0004E083F08000000008B0A3403D808410488
:103AB00000000000DB08F60EDC08350FF80E53633B
:103AC0006F72653A200053636F72653A20202020A0
:103AD000004C495333444800526567756C6172204D
:103AE00053686F770053636F72653A2030004B65FF
:103AF00062696E004861727279004C4C616E646953
:103B000073005072657373205374617274004D6159
:103B10007368005368616B65004869646521004AF9
:103B20006F6B6500596F752057696E2100596F756D
:083B3000206C6F736521000099
:107E0000112484B714BE81FFF0D085E080938100F7
:107E100082E08093C00088E18093C10086E0809377
:107E2000C20080E18093C4008EE0C9D0259A86E02C
:107E300020E33CEF91E0309385002093840096BBD3
:107E4000B09BFECF1D9AA8958150A9F7CC24DD24C4
:107E500088248394B5E0AB2EA1E19A2EF3E0BF2EE7
:107E6000A2D0813461F49FD0082FAFD0023811F036
:107E7000013811F484E001C083E08DD089C08234E0
:107E800011F484E103C0853419F485E0A6D080C0E4
:107E9000853579F488D0E82EFF2485D0082F10E0AE
:107EA000102F00270E291F29000F111F8ED06801E7
:107EB0006FC0863521F484E090D080E0DECF843638
:107EC00009F040C070D06FD0082F6DD080E0C81688
:107ED00080E7D80618F4F601B7BEE895C0E0D1E017
:107EE00062D089930C17E1F7F0E0CF16F0E7DF06D8
:107EF00018F0F601B7BEE89568D007B600FCFDCFD4
:107F0000A601A0E0B1E02C9130E011968C91119780
:107F100090E0982F8827822B932B1296FA010C0160
:107F200087BEE89511244E5F5F4FF1E0A038BF0790
:107F300051F7F601A7BEE89507B600FCFDCF97BE46
:107F4000E89526C08437B1F42ED02DD0F82E2BD052
:107F50003CD0F601EF2C8F010F5F1F4F84911BD097
:107F6000EA94F801C1F70894C11CD11CFA94CF0C13
:107F7000D11C0EC0853739F428D08EE10CD085E9AC
:107F80000AD08FE07ACF813511F488E018D01DD067
:107F900080E101D065CF982F8091C00085FFFCCF94
:107FA0009093C60008958091C00087FFFCCF809118
:107FB000C00084FD01C0A8958091C6000895E0E648
:107FC000F0E098E1908380830895EDDF803219F02E
:107FD00088E0F5DFFFCF84E1DECF1F93182FE3DFCA
:107FE0001150E9F7F2DF1F91089580E0E8DFEE27F6
:047FF000FF270994CA
:027FFE00040479
:00000001FF
