:100000000C9463000C94E1100C94BA100C946011E1
:100010000C9460110C9460110C948B000C948B0068
:100020000C948B000C948B000C948B000C948B0024
:100030000C948B000C948B000C948B000C948B0014
:100040000C9470100C948B000C942E110C940811CD
:100050000C948B000C948B000C948B000C948B00F4
:100060000C94D8110C948B00000000002400270091
:100070002A0000000008000201000003040700003D
:1000800000000000000000000000230026002900FE
:1000900000000000250028002B00040404040404D0
:1000A0000404020202020202030303030303010227
:1000B00004081020408001020408102001020408F6
:1000C0001020F712BE1911241FBECFEFD8E0DEBFFB
:1000D000CDBF11E0A0E0B1E0EEEEFBE302C0059081
:1000E0000D92A23DB107D9F724E0A2EDB1E001C025
:1000F0001D92A732B207E1F710E0C2E6D0E004C0DB
:100100002197FE010E94B01CC136D107C9F70E9499
:1001100036140C94EA1D0C9400008230910538F0DE
:10012000880F991F880F991F05970197F1F7089578
:100130000895089590E0FC01EE58FF4F2491FC01D2
:10014000E255FF4F3491FC01E656FF4FE491EE2358
:10015000C9F0222339F0233001F1A8F4213019F13C
:10016000223029F1F0E0EE0FFF1FE057FF4FA5917D
:10017000B4918FB7F894EC91611126C030953E236D
:100180003C938FBF08952730A9F02830C9F0243060
:1001900049F7809180008F7D03C0809180008F7728
:1001A00080938000DFCF84B58F7784BDDBCF84B5AB
:1001B0008F7DFBCF8091B0008F778093B000D2CF3E
:1001C0008091B0008F7DF9CF3E2BDACFCF93DF93B4
:1001D00090E0FC01E255FF4F249186569F4FFC01B1
:1001E00084918823D1F090E0880F991FFC01E85991
:1001F000FF4FA591B491FC01E057FF4FC591D491F9
:1002000061110EC09FB7F8948C91E22FE0958E2378
:100210008C932881E223E8839FBFDF91CF910895DB
:100220008FB7F894EC91E22BEC938FBFF6CF3FB7EA
:10023000F89480918B0290918C02A0918D02B091E4
:100240008E0226B5A89B05C02F3F19F00196A11D6F
:10025000B11D3FBFBA2FA92F982F8827BC01CD0110
:10026000620F711D811D911D42E0660F771F881F6F
:10027000991F4A95D1F708958F929F92AF92BF929E
:10028000CF92DF92EF92FF926B017C010E941701E7
:100290004B015C01C114D104E104F104B9F00E94E6
:1002A0001701681979098A099B09683E734081051D
:1002B000910580F321E0C21AD108E108F10888EE27
:1002C000880E83E0981EA11CB11CE4CFFF90EF9034
:1002D000DF90CF90BF90AF909F908F90089508953A
:1002E000AF92BF92CF92DF92EF92FF920F931F9344
:1002F000CF93DF936C017B018B01040F151FEB0182
:100300005E01AE18BF08C017D10759F06991D60138
:10031000ED91FC910190F081E02DC6010995892BAA
:1003200079F7C501DF91CF911F910F91FF90EF9069
:10033000DF90CF90BF90AF900895FC01538D448D16
:10034000252F30E0842F90E0821B930B541710F080
:10035000CF96089501970895FC01918D828D98178D
:1003600061F0A28DAE0FBF2FB11D5D968C91928D65
:100370009F5F9F73928F90E008958FEF9FEF089596
:10038000FC01918D828D981731F0828DE80FF11D5F
:10039000858D90E008958FEF9FEF0895FC01918D7A
:1003A000228D892F90E0805C9F4F821B91098F7373
:1003B0009927089585EE92E00E94CE0121E0892BD5
:1003C00009F420E0822F089580E090E0892B29F045
:1003D0000E94DA0181110C9400000895FC01A48DA3
:1003E000A80FB92FB11DA35ABF4F2C91848D90E057
:1003F00001968F739927848FA689B7892C93A0893A
:10040000B1898C91837080648C93938D848D9813C3
:1004100006C00288F389E02D80818F7D8083089556
:10042000EF92FF920F931F93CF93DF93EC0181E044
:10043000888F9B8D8C8D98131AC0E889F9898081EB
:1004400085FF15C09FB7F894EE89FF896083E8891E
:10045000F98980818370806480839FBF81E090E010
:10046000DF91CF911F910F91FF90EF900895F62E9D
:100470000B8D10E00F5F1F4F0F731127E02E8C8D37
:100480008E110CC00FB607FCFACFE889F98980817C
:1004900085FFF5CFCE010E94EE01F1CFEB8DEC0F81
:1004A000FD2FF11DE35AFF4FF0829FB7F8940B8F99
:1004B000EA89FB8980818062CFCFCF93DF93EC0103
:1004C000888D8823B9F0AA89BB89E889F9898C913C
:1004D00085FD03C0808186FD0DC00FB607FCF7CFF8
:1004E0008C9185FFF2CF808185FFEDCFCE010E94F8
:1004F000EE01E9CFDF91CF910895FC0170E0848196
:10050000893018F0660F771F642B82819381892BC5
:1005100041F0858190E0982F8827990F9064682B8F
:10052000792BCB01089508952091820230918302A6
:100530002817390771F490918102809180029817F1
:1005400041F0E0918102F0E0E05CFD4F808190E0BD
:1005500008958FEF9FEF08950895EF92FF920F9304
:100560001F93CF93DF93DC015C96ED90FC905D9739
:10057000E114F10479F481E090E013969C938E935A
:10058000129790E080E0DF91CF911F910F91FF9043
:10059000EF9008955196ED91FC91529750968C9161
:1005A0005097982F90950FB75E962C915E97122FCB
:1005B000127021FD6095F8942081112319F1282BE8
:1005C0002083E7012197F1F728E0462F50E03081A2
:1005D00060FF1AC0382B3083E7012197F1F7BA0189
:1005E00075956795215089F7112381F080818923C2
:1005F00080830FBF5C968D919C910197F1F781E00C
:1006000090E0C1CF2923DCCF3923E5CF9081892B1E
:10061000EFCF20918202309183022817390761F4CD
:10062000809180022091810290E0805C9F4F821B2C
:1006300091098F739927089590E080E008952091A3
:1006400082023091830228173907B9F49091810210
:1006500080918002981789F0E0918102F0E0E05CDF
:10066000FD4F80812091810230E02F5F3F4F2F733B
:1006700033272093810290E008958FEF9FEF089534
:10068000FC0183858F3F19F061E00C949A00089576
:10069000FC0180819181892B39F0A281B3819C91E9
:1006A00011968C919CBD8DBD83858F3F19F060E0C4
:1006B0000C949A000895BF92CF92DF92EF92FF922E
:1006C0000F931F93CF93DF93EC0188819981892B3E
:1006D00081F06EBD0DB407FEFDCF0EB5802FDF910A
:1006E000CF911F910F91FF90EF90DF90CF90BF902F
:1006F00008958885998511E0892B09F010E8BB24BD
:10070000B394862F812309F0B12CF62E2C813D81E4
:100710004E815F8160E271EA87E090E00E94681A92
:10072000E22E00E0C22ED12CEE2019F0C6010E946C
:100730008D008A85982F977F09F044C08D858F3F63
:1007400089F09F2D912381E009F480E08B1551F011
:10075000EF85F8898F89992379F19081892B80839E
:10076000BB24B394E989FA898081998D892B808390
:10077000EE2019F0C6010E948D008E858F3F39F062
:10078000EB89FC898081988D892309F0012BE98907
:10079000FA899081898D80958923808388859985C0
:1007A000892B09F067C0110F1111BECF8E858F3FC5
:1007B00009F094CF0F2D92CF90818095892380836B
:1007C000B12CD0CF8C3099F58D858F3F49F0EF85D6
:1007D000F8898F899F2D912331F19081892B808316
:1007E000E989FA899081898D809589238083EE201B
:1007F00019F0C6010E948D00E989FA898081998DDE
:10080000892B8083EE2019F0C6010E948D008E8511
:100810008F3F21F2EB89FC898081988D892309F42F
:10082000BDCF012BBBCF908180958923D8CFE9899B
:10083000FA898081998D892B8083EE2019F0C60179
:100840000E948D008D858F3F49F0EF85F8898F8953
:100850009F2D912359F09081892B8083E989FA8912
:100860009081898D809589238083D1CF90818095D7
:100870008923F3CF169598CF8F929F92AF92BF9214
:10088000CF92DF92EF92FF920F931F93CF93DF935C
:100890007C014B016A01B22EA32E0E944803E401A1
:1008A000C80CD91CCC15DD0569F4CB2DDA2D0C0F45
:1008B0001D1FC017D10759F06FEFC7010E945B03DE
:1008C0008993F7CF6991C7010E945B03EBCFC70102
:1008D0000E94400381E0DF91CF911F910F91FF9023
:1008E000EF90DF90CF90BF90AF909F908F90089542
:1008F0008F929F92AF92BF92CF92DF92EF92FF9230
:100900000F931F93CF93DF937C01B62EA72E6A011E
:1009100049010E944803E401080D191DC017D107C1
:1009200061F4CB2DDA2DCC0EDD1ECC15DD0551F09A
:100930006991C7010E945B03F8CF6991C7010E94CA
:100940005B03ECCFC7010E94400381E0DF91CF91B0
:100950001F910F91FF90EF90DF90CF90BF90AF90DD
:100960009F908F9008952091FD01260F3327331F0C
:1009700021323105ECF42091BB02FC0190E080E0D3
:10098000243069F082E00895A091FD012191AC012D
:1009900043525E4FA40FB52FB11D2C9301968617BD
:1009A00098F38091FD01680F6093FD0180E0089548
:1009B00081E008951092BB0281E08093BA02109208
:1009C000950261E082E10E949A0061E083E10E9469
:1009D0009A00E9EBF0E080818E7F808380818D7FBB
:1009E000808388E48093B80085E48093BC000895F8
:1009F00010929402109293021092C2021092E4029A
:100A00000E94DA0488E990E0909392028093910228
:100A100089E990E09093900280938F020895CF939C
:100A2000DF9391E09093DC018823B9F0C091B80086
:100A3000D091BA008091BC008A7B8093BC0060E0BA
:100A400082E10E949A0060E083E10E949A000E9485
:100A5000DA04D093BA00C093B800DF91CF91089523
:100A60008F929F92AF92BF92CF92DF92EF92FF92BE
:100A70000F931F93CF93DF93D091E402D13208F00C
:100A8000D7C0182FC091E3020E9417016B017C01AF
:100A90008091BB0281116BC082E08093BB021093F6
:100AA000BA028FEF8093B9021092B802D093B702C6
:100AB000A3ECB2E0E7E9F2E080E0D81391C0109235
:100AC000960280919602CC0FC82BC093960280911B
:100AD0009502813009F088C0109295020E9417019A
:100AE0006B017C01809196028093BB008091BD02D6
:100AF0009091BE02A091BF02B091C002892B8A2BB7
:100B00008B2BA1F00E9417010091BD021091BE0233
:100B10002091BF023091C0026C197D098E099F0996
:100B2000061717072807390708F442C08091BC0050
:100B300083FDD8CF85EC8093BC000E9417016B0128
:100B40007C018091BB02823009F450C08091B902CF
:100B50008F3F09F46FC08091B902803209F46CC0F4
:100B60008091B902803309F469C084E026C0809185
:100B7000BD029091BE02A091BF02B091C002892B2C
:100B80008A2B8B2B09F484CF0E9417018090BD0221
:100B90009090BE02A090BF02B090C0026C197D0977
:100BA0008E099F0986169706A806B90608F070CF29
:100BB0008091BC020E940F0585E01092C202109243
:100BC000E4021092C102DF91CF911F910F91FF902B
:100BD000EF90DF90CF90BF90AF909F908F9008954F
:100BE0009D9191938F5F69CF85EEA5CF8091BD02D6
:100BF0009091BE02A091BF02B091C002892B8A2BB6
:100C00008B2B09F49ECF0E9417010091BD02109119
:100C1000BE022091BF023091C0026C197D098E097D
:100C20009F09061717072807390708F08ACFC0CF92
:100C300081E0C3CF80E0C1CF82E0BFCF83E0BDCFF2
:100C40001F93CF93DF93EA01122FDC0111968D9150
:100C50009C91DC01ED91FC910280F381E02D0995DE
:100C6000C817D90729F4812F0E94300591E081111E
:100C700090E0892FDF91CF911F910895AF92BF929D
:100C8000CF92DF92EF92FF920F931F93CF93DF9358
:100C900000D0CDB7DEB7DC01211103C01A962C912C
:100CA0001A97253008F043C051964D935D936D938C
:100CB0007C93549790E080E0E22EF12C8E159F05F6
:100CC000B4F41C962C911C9721110AC0FD01E80F69
:100CD000F91F4587452F562F672F77270196EECFAF
:100CE000F701E81BF90BEA0FFB1F4487F3CF6D01F7
:100CF0008DE0C80ED11C18969C91189719968C916E
:100D0000199799838A83AD90BC901197A114B1046F
:100D100009F441C01B960C9110E098012E0D3F1D67
:100D2000D50114968D919C918217930710F480E061
:100D300016C0F50181819281208131E03093C1029A
:100D40002093E3021092C2021092E40201151105F1
:100D500099F421E0A701B601C5010E9420060F9079
:100D60000F90DF91CF911F910F91FF90EF90DF9047
:100D7000CF90BF90AF900895DC01ED91FC9102807F
:100D8000F381E02DA801BE016F5F7F4F0995081721
:100D9000190769F6DECF1296ED91FC911397309703
:100DA00049F116962D913C9117971B960C9110E0E6
:100DB0002330310571F48E7F89839A830F5F1F4F33
:100DC0009E012F5F3F4FA701B601CF010E9478041B
:100DD000C6CF2115310519F49F779983F1CF2230C1
:100DE000310511F49068F9CF2130310549F79F772B
:100DF0009064F3CF1496ED91FC911597309709F418
:100E000096CF8085882309F492CFA680B780A1145D
:100E1000B10409F48CCF870196011B964C91BE0159
:100E20006F5F7F4F81859285F501099598CFEF928D
:100E3000FF921F93CF93DF93CDB7DEB765970FB6C1
:100E4000F894DEBF0FBECDBF7C01162F40E069E0F5
:100E50000E947D02F70142815381208131811A8AEB
:100E60001B8A1C8A1D8A5C834B833A83298323E077
:100E700030E038872F8321E02C879A8789871D8669
:100E80002B87412F50E070E060E020E0CE0101961A
:100E90000E943E0665960FB6F894DEBF0FBECDBF2A
:100EA000DF91CF911F91FF90EF900895CF93DF9343
:100EB000EC018B818823A1F0888191E09093C1029D
:100EC0008093E3021092C2021092E40281E00E9439
:100ED000300591E0811190E0892FDF91CF91089545
:100EE0000E94F80481E08B83CE010E945607982F60
:100EF0008111E2CFF1CFE091940280919302E81743
:100F000030F4F0E0E05EFD4F808190E008958FEFD7
:100F10009FEF089590919402809193022FEF3FEFFD
:100F2000981748F4E92FF0E0E05EFD4F208130E0B3
:100F30009F5F90939402C9010895809193029091CC
:100F40009402891B990B0895CF92DF92EF92FF9242
:100F50000F931F93CF93DF937C01CB018A012091E4
:100F6000C102222389F0EB016B01C40ED51ECC1502
:100F7000DD0569F06991D701ED91FC910190F08157
:100F8000E02DC7010995F3CF642F0E94B304C80177
:100F9000DF91CF911F910F91FF90EF90DF90CF9055
:100FA0000895CF93DF931F92CDB7DEB76983209169
:100FB000C1022223F9F02091E402203258F021E00E
:100FC00030E0FC013383228390E080E00F90DF91DA
:100FD000CF9108958091C202E82FF0E0ED53FD4FCC
:100FE000998190838F5F8093C2028093E40281E0B5
:100FF00090E0ECCF61E0CE0101960E94B304F7CF00
:1010000090E080E00895089508952F923F924F92C6
:101010005F926F927F928F929F92AF92BF92CF9288
:10102000DF92EF92FF920F931F93CF93DF9300D045
:1010300000D0CDB7DEB7DC014B01042F18969C9190
:10104000189719968C91199799838A832D903C90C3
:1010500011972114310409F43AC11B964C9150E0C8
:10106000D10114968D919C9184179507C8F4D12CC9
:101070008D2D0F900F900F900F90DF91CF911F91BA
:101080000F91FF90EF90DF90CF90BF90AF909F9027
:101090008F907F906F905F904F903F902F9008952A
:1010A000F101808191E09093C1028093E30210925C
:1010B000C2021092E40220E0BE016F5F7F4FC101C7
:1010C0000E942006D82E882391F2802F90E09C83E6
:1010D0008B83B12CA12C01E0AB81BC81AA16BB068D
:1010E00038F6F101848195817D01EA18FB088E159F
:1010F0009F0508F47C01D101CC900E9417012B01BF
:101100003C018091BB02811172C01E2D113208F08A
:1011100010E20093BB0221E08B819C818E199F0914
:10112000A816B90608F420E02093BA02BFEFB093E6
:10113000B9021092B8028FEF810F8093B70200932B
:10114000960280919602CC0CC82AC0929602809199
:101150009502813009F092C0109295020E94170109
:101160002B013C01809196028093BB008091BD02CF
:101170009091BE02A091BF02B091C002892B8A2B30
:101180008B2BA1F00E9417012091BD023091BE026D
:101190004091BF025091C0026419750986099709F0
:1011A000261737074807590708F442C08091BC004A
:1011B00083FDD8CFE5ECE093BC000E9417012B0122
:1011C0003C018091BB02813009F45CC08091B8027F
:1011D000811710F41091B802A7E9B2E0E0E2F2E062
:1011E00080E0811751F19D9191938F5FFACF8091AB
:1011F000BD029091BE02A091BF02B091C002892BA6
:101200008A2B8B2B09F47DCF0E9417012091BD0200
:101210003091BE024091BF025091C002641975091D
:1012200086099709261737074807590708F069CF35
:101230008091BC020E940F0510E01092940210935E
:1012400093021E151F0409F012CF34016A0C7B1C97
:101250002301C201861997098E159F05A8F5D101B2
:1012600011968D919C91DC01ED91FC910284F385A6
:10127000E02D0995F20181932F01EBCFF5EEF0936C
:10128000BC009BCF8091BD029091BE02A091BF0295
:10129000B091C002892B8A2B8B2B09F492CF0E942C
:1012A00017012091BD023091BE024091BF025091C2
:1012B000C002641975098609970926173707480778
:1012C000590708F07ECFB4CFAE0CBF1C05CF1296E5
:1012D000ED91FC911397309749F116962D913C9121
:1012E000179710E01B964C9150E02330310571F4B4
:1012F000816089839A834F5F5F4F9401BE016F5F66
:101300007F4FCF010E943C04D82EB2CE211531056B
:1013100019F490689983F1CF2230310511F49F7749
:10132000F9CF2130310549F7906CF4CF1496ED9147
:10133000FC911597309709F49ACE8085882309F49B
:1013400096CEE480F580E114F10409F490CE10E02B
:101350009B011B964C91BE016F5F7F4F81859285EB
:10136000F7010995D1CFCF93DF93EC01BC01635F07
:101370007F4F4A850E940508882301F14A8550E085
:1013800030E020E060E070E0CB0124173507CCF4BA
:10139000982F872F762F6627EC85E1110AC0FA0176
:1013A000E21BF30BEC0FFD1FE4856E2B2F5F3F4F0D
:1013B000ECCFFE01E20FF31FE585F7CF6FEF7FEF74
:1013C000CB01DF91CF9108958F929F92AF92BF9200
:1013D000CF92DF92EF92FF920F931F93CF93DF9301
:1013E000EC014A015B01888199810E94B3092A813D
:1013F00001E010E002C0000F111F2A95E2F7015032
:101400001109012E000C220B330BAB81680179010D
:101410000A2E04C0CC0CDD1CEE1CFF1C0A94D2F773
:10142000C094D094E094F094C622D722E822F92206
:10143000E881F981B901A801482159216A217B215C
:1014400004C0440F551F661F771FAA95D2F74C2979
:101450005D296E297F292285CF01DF91CF911F91D0
:101460000F91FF90EF90DF90CF90BF90AF909F9043
:101470008F900C943E067F928F929F92AF92BF9274
:10148000CF92DF92EF92FF920F931F93CF93DF9350
:10149000CDB7DEB7E2970FB6F894DEBF0FBECDBF73
:1014A0007C01062F77247394683008F4712C472D43
:1014B00060E0C7010E947D02F70182809380A080D6
:1014C000B1801FA218A619A61AA6998E888EBF8A67
:1014D000AE8A23E0C22ED12CDD8ECC8E11E019A372
:1014E0009F8F8E8F1AA218A3472D66E0C7010E9416
:1014F0007D021A8A1B8A1C8A1D8A9C828B82BA8270
:10150000A982D886CF821C879A8789871D861B87E8
:101510000770CE01469698AB8FA719AB0AAB4597DB
:101520009CA78BA71DA70EA740E050E0BA018E969E
:101530000E94E40940E050E0BA01CE018B960E947F
:10154000E409E2960FB6F894DEBF0FBECDBFDF917F
:10155000CF911F910F91FF90EF90DF90CF90BF90B0
:10156000AF909F908F907F900895FC01862F918D72
:101570009F3F21F0CF014C960C943B0A95899F3FE9
:1015800019F461E00C94E6000895CF93DF93CDB792
:10159000DEB769970FB6F894DEBF0FBECDBFE4EBA0
:1015A000F3E0428D538D208D318D1A8A1B8A1C8A5F
:1015B0001D8A5C834B833A83298318861F8221E02E
:1015C0002C8740E250E05A8749871D862B879E0171
:1015D0002F5F3F4F3F8B2E8B24E0288F298FAC014C
:1015E00070E060E0CE0146960E94E40969960FB66D
:1015F000F894DEBF0FBECDBFDF91CF910895EF927B
:10160000FF920F931F93CF93DF93CDB7DEB7699708
:101610000FB6F894DEBF0FBECDBF7C01162F042F8E
:1016200041E0683008F440E069E0C7010E947D02B3
:10163000F70142815381208131811A8A1B8A1C8AD9
:101640001D8A5C834B833A83298323E030E038870B
:101650002F8321E02C879A8789871D862B87CE01CF
:1016600001969F8B8E8B288F1770198F402F50E01B
:1016700070E060E045960E94E40969960FB6F89420
:10168000DEBF0FBECDBFDF91CF911F910F91FF90B5
:10169000EF900895EF92FF920F931F93CF93DF93F4
:1016A000EC01862F998D9F3F51F0CE014C96DF9132
:1016B000CF911F910F91FF90EF900C94FF0A9D899D
:1016C000642F9F3F51F1588D21E030E0B90102C0F5
:1016D000660F771F8A95E2F7CB01413031F5852BF4
:1016E000888F60E08F890E949A00088DFD88EE88BF
:1016F00018E0602F661F6627661F8E2D0E949A00D5
:10170000000F61E08F2D0E949A0060E08F2D0E94F3
:101710009A00115071F761E08F89DF91CF911F918D
:101720000F91FF90EF900C949A0080958523D8CF6D
:10173000CF93DF93EC0140E06E810E944A0B41E0C1
:101740006E81CE010E944A0B40E06E81CE010E9464
:101750004A0B8BE891E00197F1F7DF91CF91089563
:10176000AF92BF92CF92DF92EF92FF920F931F93AF
:10177000CF93DF93CDB7DEB765970FB6F894DEBF92
:101780000FBECDBF8C01FC01818D9801295F3F4FB9
:101790007901A62EB12CD12CC12C8F3F09F482C027
:1017A00068013CE1C30ED11C40E069E0C6010E9423
:1017B0007D02F801468D578D248D358D1A8A1B8A3E
:1017C0001C8A1D8A5C834B833A83298323E030E0A3
:1017D00038872F8321E02C879A8789871D862B875E
:1017E000CE0101960E94B309F70130E020E0EE241B
:1017F000E394F12C4191C701042E01C0880F0A9493
:10180000EAF780956823C501022E02C09595879559
:101810000A94E2F78170992701C0880F4A95EAF788
:10182000682B2F5F3F4F2430310521F7F801868167
:10183000970102C0220F331F8A95E2F7B22EB094AF
:10184000B6226B2DC6010E941707F8018681B701E9
:1018500001C0660F8A95EAF7B62A6B2DC6010E9471
:101860001707F801868101C0EE0C8A95EAF7E0942B
:101870006E2D6B21C6010E9417078BE891E001973E
:10188000F1F765960FB6F894DEBF0FBECDBFDF91BE
:10189000CF911F910F91FF90EF90DF90CF90BF906D
:1018A000AF900895F70161917F01C8010E94B50AC8
:1018B000A5010C2C02C0559547950A94E2F741709A
:1018C000F70131976081C8010E944A0BFFEFCF1AE0
:1018D000DF0A24E0C216D10429F7C8010E94980B40
:1018E000D0CFCF92DF92EF92FF920F931F93CF93BF
:1018F000DF93EC01F62E6C810E944A0B6D816F3FE5
:1019000021F040E0CE010E944A0B0F2D10E08F85A0
:1019100084FF2CC06E0187E0C80ED11CF12CE12C95
:10192000F60161916F01CE010E94B50AA8010E2C4B
:1019300002C0559547950A94E2F74170F601319738
:101940006081CE010E944A0BFFEFEF1AFF0A88E088
:10195000E816F10429F7CE01DF91CF911F910F9185
:10196000FF90EF90DF90CF900C94980BB80184E03B
:10197000759567958A95E1F7CE010E94B00B6F2DA2
:10198000CE01DF91CF911F910F91FF90EF90DF90EB
:10199000CF900C94B00B40E0682F82E893E00C9459
:1019A000710CCF93DF93CDB7DEB728970FB6F894BD
:1019B000DEBF0FBECDBF98E0E1E1F1E0DE011196A0
:1019C00001900D929A95E1F790919503961708F47E
:1019D0006FEF70E0660F771F21E030E02C0F3D1FA6
:1019E000620F731FFB019081890F806828960FB6E4
:1019F000F894DEBF0FBECDBFDF91CF910C94CB0C1E
:101A000081E00E94CB0C8BE39FE10197F1F70895F1
:101A100041E00E94710C81E090E008950F931F93C4
:101A2000CF93DF93EC01888199810E94B309AB01C8
:101A3000BC012A8181E090E002C0880F991F2A959D
:101A4000E2F70197092E000CAA0BBB0B2B8104C0F7
:101A500076956795579547952A95D2F78C019D0104
:101A60000423152326233723C901B801DF91CF9121
:101A70001F910F9108958F929F92AF92BF92CF9234
:101A8000DF92EF92FF920F931F93CF93DF93CDB727
:101A9000DEB7CD54D1090FB6F894DEBF0FBECDBF6F
:101AA0008C01FC01208D318D88EA2115310509F466
:101AB00088EEF801428D538D1CAE1DAE1EAE1FAEDA
:101AC0005EA74DA73CA72BA71AAA19AAFF24F39437
:101AD000FEAA90E09CAB8BAB1FAA86E08DAB46E0E4
:101AE000BE01605C7F4FCE018B960E940508229656
:101AF0008EAD9FAD2297F8019383828324968EAD9D
:101B00009FAD24979583848326968EAD9FAD2697AF
:101B100097838683228D338D808D918D1A8A1B8ABF
:101B20001C8A1D8A3C832B839A83898318861F8293
:101B3000FC8633E2A32EB12CBA86A9861D86FB86CD
:101B4000CE0101966C019F8B8E8B82E0888F84E0A2
:101B5000898F4E0196E1890E911CC4010E940E0DE1
:101B6000E62EF801428D538D208D318D1FA218A6CF
:101B700019A61AA6598F488F3F8B2E8B1D8E1C8E4F
:101B8000F9A280E290E09F8F8E8F1AA2F8A22C9685
:101B90009FAE8EAE2C972D96FFAE2D9783E02E969E
:101BA0008FAF2E971A8A1B8A1C8A1D8A5C834B83EF
:101BB0003A83298318861F82FC86BA86A9861D86E9
:101BC000FB862896DFAECEAE28972996FFAE2997E2
:101BD0002A968FAF2A97CE01865B9F4F0E940E0DEB
:101BE0004B015C01CE018A5B9F4F0E940E0D8A94CF
:101BF00089288A288B2809F47DC061307105810508
:101C0000910509F47EC081E064E0EE2069F021E0F6
:101C100068E0E21649F092E060E1E91629F0E3E0BD
:101C200061E0EE1201C060E3823009F06CC066959D
:101C30006695C12CD12C2AE7E22E26E4F22E70E024
:101C400090E080E00E947A1B4B015C01F801628108
:101C50007381072E000C880B990B0E947A1BA70139
:101C600096010E94061BA50194010E940B1CF8011D
:101C7000608771878287938764817581072E000C46
:101C8000880B990B0E947A1BA70196010E94061BE4
:101C9000A50194010E940B1CF80164877587868753
:101CA000978766817781072E000C880B990B0E941D
:101CB0007A1BA70196010E94061BA50194010E94B0
:101CC0000B1CF801608B718B828B938BC35BDF4F96
:101CD0000FB6F894DEBF0FBECDBFDF91CF911F913D
:101CE0000F91FF90EF90DF90CF90BF90AF909F90BB
:101CF0008F900895613071058105910511F080E0A4
:101D000083CF82E081CF813049F0660F660FC12C0E
:101D1000D12C9AE7E92E98E4F92E91CFC12CD12C41
:101D20008AE7E82E87E4F82E8ACFFB010190002095
:101D3000E9F73197AF01461B570BDC01ED91FC91A0
:101D40000280F381E02D09948F929F92AF92BF920F
:101D5000EF92FF920F931F93CF93DF93CDB7DEB730
:101D6000A1970FB6F894DEBF0FBECDBF7C01FA017C
:101D7000CB0119A2223008F42AE08E010F5D1F4F1B
:101D8000822E912CB12CA12CBF01A50194010E949F
:101D9000681AF901CA016A300CF5605DD8016E93CA
:101DA0008D01232B242B252B79F790E080E01097D1
:101DB00021F0BD01C7010E94950EA1960FB6F894BF
:101DC000DEBF0FBECDBFDF91CF911F910F91FF906E
:101DD000EF90BF90AF909F908F900895695CDECF99
:101DE000CF93DF93BC0185EE92E00E94950EEC014B
:101DF00063E771E085EE92E00E94950E8C0F9D1FC7
:101E0000DF91CF910895CF92DF92EF92FF9286E714
:101E100091E00E94F00E8FB7F894C0908702D090A6
:101E20008802E0908902F0908A028FBF8091D801E9
:101E30009091D901A091DA01B091DB01A70196013F
:101E4000281B390B4A0B5B0BCA01B9010E94781B96
:101E50002AE037ED43EA5BE30E94061C1816BCF447
:101E6000C092D801D092D901E092DA01F092DB0160
:101E700080918502882341F060E086E0FF90EF903A
:101E8000DF90CF900C949A0083B78E7F83BFFF9032
:101E9000EF90DF90CF900895CF92DF92EF92FF9274
:101EA00080910601882311F08330D1F58FE791E00E
:101EB0000E94F00E8FB7F894C0908702D0908802ED
:101EC000E0908902F0908A028FBF8091D4019091B6
:101ED000D501A091D601B091D701A7019601281B89
:101EE000390B4A0B5B0BCA01B9010E94781B2AE02F
:101EF00037ED43EA5BE30E94061C18168CF48091D0
:101F0000D2019091D30101969093D3018093D20195
:101F1000C092D401D092D501E092D601F092D701BF
:101F2000FF90EF90DF90CF90089585ED8093BC00F7
:101F30008091BD029091BE02A091BF02B091C002FB
:101F40000796A11DB11D23E0B695A7959795879596
:101F50002A95D1F72091BC0024FD03C01092BB024A
:101F600008954091BD025091BE026091BF027091F0
:101F7000C002452B462B472B69F30097A105B105FD
:101F800041F02AE22A95F1F700C00197A109B109B1
:101F9000E1CF8091BC020C940F050C94521D0F935D
:101FA0001F93CF93DF938C01EB0188E2FB01119229
:101FB0008A95E9F74BE050E067E871E0CE010E94B6
:101FC000DB1D1B8681E090E0A0E0B0E08C879D8760
:101FD000AE87BF87F80142A153A164A175A1488BC8
:101FE000598B6A8B7B8B8C8B9D8BAE8BBF8B1CA292
:101FF0001DA21EA21FA2188E198E1A8E1B8E1C8E59
:102000001D8E1E8E1F8E18A219A21AA21BA2DF916E
:10201000CF911F910F9108950F931F93CF93DF934B
:102020008C01EB01FB01349680E2DF011D928A9561
:10203000E9F784E290E0A0E0B0E088839983AA8386
:10204000BB83F80182A193A1A4A1B5A18C839D8338
:10205000AE83BF8381E090E0A0E0B0E088879987FD
:10206000AA87BB87188A198A1A8A1B8AC8010E9404
:102070003B0D2AE038EE4CE151E4D80118966D9101
:102080007D918D919C911B970E940B1C6C8B7D8B7D
:102090008E8B9F8B2AE038EE4CE151E4F801648589
:1020A0007585868597850E940B1C688F798F8A8F2E
:1020B0009B8F2AE038EE4CE151E4D80150966D91A7
:1020C0007D918D919C9153970E940B1C6C8F7D8FFD
:1020D0008E8F9F8F81E0DF91CF911F910F91089597
:1020E0001F920F920FB60F9211242F933F938F934D
:1020F0009F93AF93BF938091870290918802A091A4
:102100008902B0918A023091860223E0230F2D3795
:1021100058F50196A11DB11D209386028093870278
:1021200090938802A0938902B0938A0280918B02D7
:1021300090918C02A0918D02B0918E020196A11D0A
:10214000B11D80938B0290938C02A0938D02B0936B
:102150008E02BF91AF919F918F913F912F910F90E0
:102160000FBE0F901F90189526E8230F0296A11D11
:10217000B11DD2CF1F920F920FB60F9211242F9341
:102180003F934F935F936F937F938F939F93AF93FF
:10219000BF93EF93FF93E0910201F0910301099542
:1021A000FF91EF91BF91AF919F918F917F916F912F
:1021B0005F914F913F912F910F900FBE0F901F9005
:1021C00018951F920F920FB60F9211242F933F93E1
:1021D0004F935F936F937F938F939F93AF93BF932F
:1021E000EF93FF93E0910001F09101010995FF91B8
:1021F000EF91BF91AF919F918F917F916F915F917F
:102200004F913F912F910F900FBE0F901F901895F7
:102210001F920F920FB60F9211242F933F934F935B
:102220005F936F937F938F939F93AF93BF93EF933E
:10223000FF9385EE92E00E94EE01FF91EF91BF9136
:10224000AF919F918F917F916F915F914F913F914E
:102250002F910F900FBE0F901F9018951F920F9205
:102260000FB60F9211242F938F939F93EF93FF93A9
:10227000E091F502F091F6028081E091FB02F0918D
:10228000FC0282FD1BC090818091FE028F5F8F73E4
:102290002091FF02821741F0E091FE02F0E0EB5145
:1022A000FD4F958F8093FE02FF91EF919F918F914B
:1022B0002F910F900FBE0F901F9018958081F4CF33
:1022C0001F920F920FB60F9211242F933F934F93AB
:1022D0005F936F937F938F939F93AF93BF93EF938E
:1022E000FF93E0918202F0918302309749F0A68536
:1022F000B7858585968D91FF14C09C918923A1F4A3
:10230000FF91EF91BF91AF919F918F917F916F91CD
:102310005F914F913F912F910F900FBE0F901F90A3
:1023200018959C91892361F7A389B4899C9185892B
:10233000809589238C93868997890197F1F7608D21
:10234000718DA685B785558538E020E0CB010197D2
:10235000F1F7822F90E095958795282F4C91452392
:1023600009F02068315091F7868D81FD209580918C
:10237000800290E001968F7399273091810238177F
:1023800099F0A0918002B0E0A05CBD4F2C938093A7
:102390008002828D938D0197F1F7A389B4898C9186
:1023A0009589892B8C93ACCF868D8160868FF1CFF8
:1023B0001F920F920FB60F9211242F933F934F93BA
:1023C0005F936F937F938F939F93AF93BF93EF939D
:1023D000FF938091B900887F803609F44AC0F0F5F8
:1023E000883209F4A7C018F5803109F49BC0B8F40D
:1023F000882309F4F9C0883009F494C0FF91EF9163
:10240000BF91AF919F918F917F916F915F914F910C
:102410003F912F910F900FBE0F901F90189588310C
:1024200009F488C0803251F78093B90214C0803417
:1024300009F49DC040F48033B9F38833F9F68093F2
:10244000B90285ECB0C0803509F485C0883509F43F
:1024500096C0883499F60E94950FD0CF883909F438
:102460008CC038F5883729F050F4883611F0803761
:1024700029F683E08093BB0210921F0257C0883870
:1024800009F47BC0803919F0803809F0B7CF80910A
:102490001F02803208F071C0E0911F0281E08E0FB0
:1024A00080931F028091BB00F0E0E150FE4F8083DB
:1024B0003DC0803B39F0E0F4803A09F479C0883AB5
:1024C00009F09CCF84E08093BB021092FE01109231
:1024D000FD01E0919102F091920209958091FD0138
:1024E00081110FC081E08093FD011092DD0109C0D0
:1024F000803C09F4A6CF883C09F4A3CF883B09F0BF
:102500007DCFE091FE0181E08E0F8093FE01F0E02F
:10251000E352FE4F80818093BB009091FE01809139
:10252000FD0129C0809196028093BB0085EC8093C9
:10253000BC0064CF9091B8028091B702981758F50B
:10254000E091B80281E08E0F8093B802F0E0E95686
:10255000FD4F8081E9CFE091B80281E08E0F80933A
:10256000B8028091BB00F0E0E956FD4F8083909166
:10257000B8028091B7029817C8F285E8D8CFE091E9
:10258000B80281E08E0F8093B8028091BB00F0E02A
:10259000E956FD4F80838091BA0281115CCF81E0C2
:1025A0008093950284EA8093BC001092BB0226CFF0
:1025B00085EC8093BC001092BB0280911F02803298
:1025C00030F4E0911F02F0E0E150FE4F1082609184
:1025D0001F0270E0E0918F02F09190028FEF91E086
:1025E000099510921F020ACF1092B90234CF1092AF
:1025F000E8021092E70288EE93E0A0E0B0E080935A
:10260000E9029093EA02A093EB02B093EC0227E276
:1026100031E03093E6022093E50225EC30E0309380
:10262000F2022093F10224EC30E03093F402209384
:10263000F30220EC30E03093F6022093F50221EC17
:1026400030E03093F8022093F70222EC30E0309330
:10265000FA022093F90226EC30E03093FC0220933A
:10266000FB021092FE021092FF02109200031092E1
:1026700001031092AB031092AA038093AC039093D2
:10268000AD03A093AE03B093AF0329E331E03093E1
:10269000A9032093A80310920704109206048093C4
:1026A000080490930904A0930A04B0930B0485E6F0
:1026B00091E0909305048093040410921B041092FF
:1026C0001A0410921D0410921C0410921F04109200
:1026D0001E041092210410922004609122046E7F47
:1026E0006D7F609322046695617081E068278BE0BE
:1026F0000E949A0061E08BE00E94E600E9EBF0E0C6
:10270000E491E0931404E5EAF0E0E491F0E0EE0FE8
:10271000FF1FE057FF4F859194919093160480938B
:10272000150460E08AE00E94E6008091220481FDA9
:1027300004C061E08AE00E949A008AE0809310045D
:10274000E8EBF0E0E491E0931104E4EAF0E0E491D6
:10275000F0E0EE0FFF1FEA57FF4F259134913093C1
:1027600013042093120444EF51E060E070E04093C2
:10277000E4035093E5036093E6037093E703E9E114
:10278000F1E0A2EFB3E001900D928A95E1F710928B
:10279000FC0392E09093FD03109202041092030454
:1027A00027E531E03093B5032093B4031092CD03B5
:1027B0001092CC031092CF031092CE038FEF809330
:1027C000D1038093D2038093D3038093D4034FEF3C
:1027D0005FEFBA014093D6035093D7036093D803B9
:1027E0007093D90340E251EA67E070E04093DA0366
:1027F0005093DB036093DC037093DD0328EA33E03E
:102800003093C9032093C803109285031092840368
:102810004BE451E0509383034093820310929F0353
:1028200010929E031092A1031092A00348E04093DF
:10283000A20347E240939B0330939D0320939C03A4
:102840001092910321E02093860380938703909355
:10285000880383E08093890384E080938A0385E082
:1028600080938B0386E080938C030895CF93DF934E
:10287000CDB7DEB7C354D1090FB6F894DEBF0FBE93
:10288000CDBF789484B5826084BD84B5816084BDF9
:1028900085B5826085BD85B5816085BD80916E00FE
:1028A000816080936E00109281008091810082602F
:1028B000809381008091810081608093810080916C
:1028C00080008160809380008091B100846080935B
:1028D000B1008091B00081608093B00080917A0057
:1028E000846080937A0080917A00826080937A007D
:1028F00080917A00816080937A0080917A0080686C
:1029000080937A001092C100E091F502F091F602F6
:1029100082E08083E091F102F091F2021082E09176
:10292000F302F091F4028FEC80831092FD02E091AB
:10293000F902F091FA0286E08083E091F702F091CB
:10294000F802808180618083E091F702F091F802C3
:10295000808188608083E091F702F091F8028081A5
:1029600080688083E091F702F091F80280818F7D8A
:10297000808360E088E00E94E60060E082E00E94E0
:10298000E60061E086E00E94E60061E085E00E94EA
:10299000E60060E083E00E94E60061E08CE10E94D6
:1029A000E60061E08BE10E94E60060E087E00E94C3
:1029B000E60061E080E00E94E60060E081E00E94C5
:1029C000E60061E086E00E949A0061E088E00E94F3
:1029D0009A008CE49FE09093010180930001809124
:1029E0006900836080936900E89A83E09FE0909398
:1029F000030180930201809169008C6080936900DB
:102A0000E99A98E1D92ED092D50383E38093D0033D
:102A1000E090C803F090C903E114F10409F4A2C1E5
:102A200086E090E00E94B61C8C01DC01DC921296DC
:102A3000FC92EE92119713961C92139780E290E00D
:102A400015969C938E9314971093CD030093CC030B
:102A50000E94F80481E0F8018383C8010E945607B0
:102A600081112AC22091CE033091CF038091CC03F3
:102A70009091CD031A8A1B8A1C8A1D8A3C832B8362
:102A80009A83898318861F82FF24F394FC8683E24D
:102A900090E09A8789871D86FB86CE0101969F8BE1
:102AA0008E8B82E0888F84E0898F40E050E0BA010D
:102AB000CE0146960E94E4096FE070E080E090E06D
:102AC0000E943C0184E090E00E94C50A0E94F80444
:102AD000E0909B03FFEFEF1609F468C3C0909C03DE
:102AE000D0909D0386E090E00E94B61C8C01DC0132
:102AF000EC921296DC92CE92119713961C92139739
:102B000080E290E015969C938E93149710939F0308
:102B100000939E030E94F804F801F382C8010E940A
:102B20005607882309F483C067E08EE993E00E948A
:102B30003B0A41E067E08EE993E00E94FF0A09E862
:102B400013E03DE8E32E33E0F32ED8016D918D01C3
:102B500082E893E00E94B50AE016F106B1F76091B1
:102B600086038EE993E00E943B0A609188038EE918
:102B700093E00E943B0A80919103886080939103C7
:102B800082E080939503109296038BE39DE001977A
:102B9000F1F740E06091860382E893E00E944A0BDF
:102BA00040E06091880382E893E00E944A0B6091C4
:102BB00087036F3F29F040E082E893E00E944A0BD0
:102BC0008091910384FD1AC363E082E893E00E9440
:102BD000B00B0BE416E4C8010197F1F763E082E85B
:102BE00093E00E94B00BC8010197F1F763E082E81F
:102BF00093E00E94B00B83E592E00197F1F762E069
:102C000082E893E00E94B00B8091910380620E9461
:102C1000CB0C84E0809392038CE00E94CB0C0E944A
:102C2000000D82E08093930386E00E94CB0C80919C
:102C30009B038F3F21F4809197038F3F31F041E058
:102C400067E082E893E00E944A0B0E94000D60E07A
:102C500080E00E94D10C6EE871E082E893E00E946F
:102C6000950E61E080E00E94D10C6BE971E082E892
:102C700093E00E94950E83E480937C0080917A001B
:102C8000806480937A0080917A0086FDFCCF8091E9
:102C90007800909179000E942B1A78948AE0A82EEF
:102CA000B12C90E0292E90E0392E28EC822E912C28
:102CB00064EA71E085EE92E00E94950E40918502F3
:102CC00050E070E060E02AE085EE92E00E94A40E01
:102CD00063E771E085EE92E00E94950E4091060157
:102CE00050E070E060E02AE085EE92E00E94A40EE1
:102CF00063E771E085EE92E00E94950E68EE73E066
:102D000080E090E00E943C0180910601813009F44E
:102D10008BC28430D9F40E94000D60E080E00E94F4
:102D2000D10C6CEA71E082E893E00E94950E83B7C3
:102D3000817F846083BF83B7816083BF889588EB80
:102D400091E00E94F00E81E080930601211431048D
:102D500009F4AECF0E94DA01882309F4A9CF0E94BA
:102D60000000A6CFF090D103FFEFFF1609F4A4C036
:102D70001091D4038090DA039090DB03A090DC03E1
:102D8000B090DD038CE190E01F3F09F050C10E943C
:102D9000B61C6C018091CA039091CB03D6011B969F
:102DA000FC921B971E961C931E971D961C931D97B5
:102DB0001C961C931C9711969C938E935B961C9269
:102DC00082E090E00E94B61CFC0140E052E16AE71C
:102DD00070E090E084169506A606B70640F4769556
:102DE0006795579547959F5F9630A1F797E0892F94
:102DF000806A86958083909591709183D601139611
:102E0000FC93EE931297F60184829582A682B78294
:102E100081E090E0918780871286D092CF03C092A4
:102E2000CE030091CE031091CF0361E08F2D0E945D
:102E3000E60061E0D8011B968C910E949A00F8018F
:102E400080819181892B09F48CC1FFB6F89480911F
:102E50008402811127C0E4EAF0E08491E8EBF0E01D
:102E60009491E82FF0E0EE0FFF1FE859FF4FA59176
:102E7000B491EC91E92321F461E08AE00E949A0088
:102E800061E08AE00E94E6008CB580618CBD8CB563
:102E900080648CBD61E08DE00E94E60061E08BE023
:102EA0000E94E600809184028F5F80938402FFBEBF
:102EB00081E0D8015B968C932091CE033091CF03B3
:102EC0008091CC039091CD031A8A1B8A1C8A1D8A9B
:102ED0003C832B839A83898318861F8211E01C8789
:102EE0008FE090E09A8789871D861B87FE013196C7
:102EF0007F01CF010E94B3098091D0038613B2CD28
:102F00002091CE033091CF038091CC039091CD03DB
:102F10001CAE1DAE1EAE1FAE3EA72DA79CA78BA755
:102F20001AAA19AA1EAB80E290E09CAB8BAB1FAA39
:102F30001DAB20E047E050E060E070E0CE018B96F2
:102F40000E943E0687E090E00E94C50A2091CE03D1
:102F50003091CF038091CC039091CD031FA218A68E
:102F600019A61AA6398F288F9F8B8E8B1D8E1C8ECB
:102F700019A383E290E09F8F8E8F1AA218A320E0FE
:102F800048E850E060E070E0CE0146960E943E06C0
:102F90002091CE033091CF038091CC039091CD034B
:102FA0001A8A1B8A1C8A1D8A3C832B839A838983F5
:102FB00018861F821C8782E290E09A8789871D8687
:102FC0001B872296FFAEEEAE229723961FAF239764
:102FD00084E024968FAF249741E050E060E070E0F9
:102FE000CE01805C9F4F0E94E4092091CE03309176
:102FF000CF038091CC039091CD031A8A1B8A1C8A3F
:103000001D8A3C832B839A83898318861F821C87A1
:103010008FE190E09A8789871D861B8720E040E832
:1030200050E060E070E0C7010E943E061BCD0E94A8
:10303000B61CDC012091D2038091D30311961C921F
:103040001E9213961C921E9212971B96FC921B972F
:103050001C961C931C971E968C931E971D962C9362
:103060001D974F2D0F2C000C550BFA01E656FF4F04
:10307000E491F0E0EE0FFF1FE057FF4F6591749170
:1030800056967C936E935597FA01E255FF4FE49163
:103090005A96EC935A972F3FC9F0022E000C330B2F
:1030A000F901E656FF4FE491F0E0EE0FFF1FE05705
:1030B000FF4F4591549150965C934E931F97F901A1
:1030C000E255FF4FE4915796EC9357978F3FC9F025
:1030D000082E000C990BFC01E656FF4FE491F0E03E
:1030E000EE0FFF1FEA57FF4F2591349154963C9302
:1030F0002E935397FC01E255FF4FE4915896EC93C1
:103100005897812F110F990BFC01E656FF4FE49160
:10311000F0E0EE0FFF1FE057FF4F259134915296DC
:103120003C932E935197FC01E255FF4FE491599641
:10313000EC93599714968D929D92AD92BC921797ED
:1031400081E090E019969C938E9318971A961C92A2
:103150001A975B961C925B97B093CF03A093CE0314
:1031600060CE61E084850E94E600F80182858B7F55
:10317000D1F460E084850E949A00F80185858F3F34
:1031800049F061E00E94E60061E0D8011D968C9153
:103190000E949A00F80186858F3F09F489CE60E08D
:1031A0000E94E60085CE61E08485E5CF809197039B
:1031B00061E08F3F91F0809198030E94E60061E00A
:1031C000809197030E94E60061E0809199030E943C
:1031D000E60080E880939A03CECC809186030E941B
:1031E000E600809187038F3F19F061E00E94E600BE
:1031F00061E0809188030E94E600BDCC80620E945D
:10320000CB0C8BE496E40197F1F7809191038062F7
:103210000E94CB0C83E592E00197F1F78091910336
:1032200080620E94CB0CF0CC81EC91E00E94F00E09
:103230000AE010E0C12CD12C76012601370184EB85
:1032400093E00E943B0D6091B6037091B70377FF46
:1032500003C0719561957109072E000C880B990BBD
:103260000E947A1B9B01AC01C301B2010E949A1A11
:103270002B013C016091B8037091B90377FF03C043
:10328000719561957109072E000C880B990B0E94AE
:103290007A1B9B01AC01C701B6010E949A1A6B010F
:1032A0007C018091040190910501B5010E949C1C54
:1032B00090E080E00E943C010150110909F0BFCF6D
:1032C00020E030E040E251E4C301B2010E94061B5D
:1032D00020E030E040E856E40E94061C87FF10C062
:1032E00020E030E040E251E4C701B6010E94061B35
:1032F00020E030E040E856E40E94061C87FD3AC01A
:103300004091850211E0140F1093850261E080E086
:103310000E94D10C67EC71E082E893E00E94950E68
:1033200061E087E00E94D10C412F50E070E060E046
:103330002AE082E893E00E94A40E80918502833601
:1033400020F0B5E0B093060101CD81E08093060145
:1033500080910401909105018333910528F49092A6
:10336000050180920401F2CCC297909305018093ED
:103370000401ECCCE6E0E0930601E8CC85E691E0C0
:1033800090930504809304048091820290918302BB
:103390008450944071F4E0911704F09118049081E6
:1033A0008091190480958923808310928302109262
:1033B000820208958F929F92AF92BF92CF92DF9236
:1033C000EF92FF92CF93DF93EC01688179818A813C
:1033D0009B81611571058105910521F464E279ED08
:1033E0008BE597E02DE133EF41E050E00E94361A83
:1033F00049015A019B01AC01A7EAB1E40E94551AA8
:103400006B017C01ACEEB4EFA50194010E94631A3C
:10341000DC01CB018C0D9D1DAE1DBF1DB7FF03C090
:103420000197A109B04888839983AA83BB839F77BA
:10343000DF91CF91FF90EF90DF90CF90BF90AF9052
:103440009F908F9008950E94DA19089587E091E087
:103450000E94DA190895B0E0A0E0809307019093EC
:103460000801A0930901B0930A010895052E97FB66
:103470001EF400940E944D1A57FD07D00E94681A4E
:1034800007FC03D04EF40C944D1A5095409530959E
:1034900021953F4F4F4F5F4F0895909580957095C0
:1034A00061957F4F8F4F9F4F08950E948A1AA59F65
:1034B000900DB49F900DA49F800D911D112408952F
:1034C000B7FF0C94551A0E94551A821B930B08954E
:1034D000A1E21A2EAA1BBB1BFD010DC0AA1FBB1F18
:1034E000EE1FFF1FA217B307E407F50720F0A21B8A
:1034F000B30BE40BF50B661F771F881F991F1A94F7
:1035000069F760957095809590959B01AC01BD0120
:10351000CF010895A29FB001B39FC001A39F700D7A
:10352000811D1124911DB29F700D811D1124911DCB
:1035300008955058BB27AA270E94B11A0C94CC1B9F
:103540000E94BE1B38F00E94C51B20F039F49F3F3B
:1035500019F426F40C94BB1B0EF4E095E7FB0C94D5
:10356000B51BE92F0E94DD1B58F3BA1762077307DA
:103570008407950720F079F4A6F50C94FF1B0EF450
:10358000E0950B2EBA2FA02D0B01B90190010C0173
:10359000CA01A0011124FF27591B99F0593F50F48B
:1035A000503E68F11A16F040A22F232F342F4427E3
:1035B000585FF3CF469537952795A795F0405395DB
:1035C000C9F77EF41F16BA0B620B730B840BBAF0AB
:1035D0009150A1F0FF0FBB1F661F771F881FC2F716
:1035E0000EC0BA0F621F731F841F48F4879577952A
:1035F0006795B795F7959E3F08F0B0CF9395880FE4
:1036000008F09927EE0F9795879508950E941A1B49
:103610000C94CC1B0E94C51B58F00E94BE1B40F0AE
:1036200029F45F3F29F00C94B51B51110C94001C38
:103630000C94BB1B0E94DD1B68F39923B1F3552347
:1036400091F3951B550BBB27AA27621773078407B5
:1036500038F09F5F5F4F220F331F441FAA1FA9F34B
:1036600035D00E2E3AF0E0E832D091505040E69539
:10367000001CCAF72BD0FE2F29D0660F771F881F9A
:10368000BB1F261737074807AB07B0E809F0BB0B8D
:10369000802DBF01FF2793585F4F3AF09E3F5105A1
:1036A00078F00C94B51B0C94001C5F3FE4F3983E3B
:1036B000D4F3869577956795B795F7959F5FC9F78A
:1036C000880F911D9695879597F90895E1E0660F0B
:1036D000771F881FBB1F621773078407BA0720F084
:1036E000621B730B840BBA0BEE1F88F7E0950895ED
:1036F000E89409C097FB3EF490958095709561958C
:103700007F4F8F4F9F4F9923A9F0F92F96E9BB2741
:103710009395F695879577956795B795F111F8CFBD
:10372000FAF4BB0F11F460FF1BC06F5F7F4F8F4F28
:103730009F4F16C0882311F096E911C0772321F01E
:103740009EE8872F762F05C0662371F096E8862FB6
:1037500070E060E02AF09A95660F771F881FDAF70D
:10376000880F9695879597F9089597F99F6780E850
:1037700070E060E008959FEF80EC089500240A94C3
:103780001616170618060906089500240A9412163C
:103790001306140605060895092E0394000C11F46F
:1037A000882352F0BB0F40F4BF2B11F460FF04C01C
:1037B0006F5F7F4F8F4F9F4F089557FD9058440F75
:1037C000551F59F05F3F71F04795880F97FB991F80
:1037D00061F09F3F79F0879508951216130614063D
:1037E000551FF2CF4695F1DF08C0161617061806CA
:1037F000991FF1CF86957105610508940895E894A5
:10380000BB2766277727CB0197F908950E94781C7C
:1038100008F48FEF08950E941E1C0C94CC1B0E948C
:10382000BE1B38F00E94C51B20F0952311F00C94AC
:10383000B51B0C94BB1B11240C94001C0E94DD1BB7
:1038400070F3959FC1F3950F50E0551F629FF001F3
:10385000729FBB27F00DB11D639FAA27F00DB11D0C
:10386000AA1F649F6627B00DA11D661F829F222795
:10387000B00DA11D621F739FB00DA11D621F839F1C
:10388000A00D611D221F749F3327A00D611D231FF2
:10389000849F600D211D822F762F6A2F11249F5740
:1038A00050409AF0F1F088234AF0EE0FFF1FBB1F43
:1038B000661F771F881F91505040A9F79E3F510502
:1038C00080F00C94B51B0C94001C5F3FE4F3983E11
:1038D000D4F3869577956795B795F795E7959F5FAC
:1038E000C1F7FE2B880F911D9695879597F908953E
:1038F000990F0008550FAA0BE0E8FEEF1616170601
:10390000E807F907C0F012161306E407F50798F068
:10391000621B730B840B950B39F40A2661F0232B81
:10392000242B252B21F408950A2609F4A140A695FD
:103930008FEF811D811D0895AA1BBB1B51E107C09C
:10394000AA1FBB1FA617B70710F0A61BB70B881F2F
:10395000991F5A95A9F780959095BC01CD010895BE
:10396000EE0FFF1F0590F491E02D09940F931F9324
:10397000CF93DF938230910510F482E090E0E091E4
:103980002504F091260430E020E0B0E0A0E030977C
:1039900099F42115310509F44AC0281B390B24304C
:1039A0003105D8F58A819B816115710589F1FB018B
:1039B00093838283FE0111C0408151810281138172
:1039C00048175907E0F04817590799F4109761F024
:1039D00012960C93129713961C933296CF01DF9197
:1039E000CF911F910F910895009325041093260401
:1039F000F4CF2115310551F04217530738F0A901D2
:103A0000DB019A01BD01DF01F801C1CFEF01F9CF60
:103A10009093260480932504CDCFFE01E20FF31F7F
:103A2000819391932250310939832883D7CF2091F4
:103A3000230430912404232B41F420910D01309173
:103A40000E01309324042093230420910B01309124
:103A50000C012115310541F42DB73EB740910F01FE
:103A600050911001241B350BE0912304F0912404A4
:103A7000E217F307A0F42E1B3F0B2817390778F045
:103A8000AC014E5F5F4F2417350748F04E0F5F1FA4
:103A90005093240440932304819391939FCFF0E0AB
:103AA000E0E09CCFCF93DF930097E9F0FC013297E1
:103AB00013821282A0912504B0912604ED0130E01A
:103AC00020E01097A1F420813181820F931F209173
:103AD0002304309124042817390709F061C0F093BA
:103AE0002404E0932304DF91CF910895EA01CE17D7
:103AF000DF07E8F54A815B819E0141155105B1F769
:103B0000E901FB83EA8349915991C40FD51FEC1752
:103B1000FD0761F4808191810296840F951FE90170
:103B200099838883828193819B838A83F0E0E0E09C
:103B300012968D919C9113970097B9F52D913C9118
:103B40001197CD010296820F931F2091230430918B
:103B500024042817390739F6309751F510922604B6
:103B600010922504B0932404A0932304BCCFD383E4
:103B7000C28340815181840F951FC817D90761F412
:103B80004E5F5F4F88819981480F591F5183408351
:103B90008A819B81938382832115310509F0B0CFFF
:103BA000F0932604E09325049ECFFD01DC01C0CFF5
:103BB00013821282D7CFFB01DC014150504048F004
:103BC00001900D920020C9F701C01D924150504054
:103BD000E0F7089510E0C2E6D0E004C0FE010E94C4
:0E3BE000B01C2196C336D107C9F7F894FFCF69
:103BEE006F016F018813040100000000002704809C
:103BFE000000004000140054007EFF06000100008B
:103C0E000000EF00000000100270019D015D02CE69
:103C1E0001AC01C00100000000D107A4070008ACF0
:103C2E00029D078A077B0700000000080D70010047
:103C3E00089302000000000308CD0F04080C10CFFB
:103C4E000F00000000AD0270010008AC0209031F56
:103C5E000394020D0A007374617274697372006DBD
:103C6E00617368697372004C49533344480052655E
:103C7E0067756C61722053686F770053636F72655E
:103C8E003A20300053636F7265203D0050726573A9
:103C9E007320537461727400707265737461727400
:103CAE00005348414B450053636F72653A20202004
:023CBE002000E4
:00000001FF
