:100000000C9463000C94D4120C94AD120C94531302
:100010000C9453130C9453130C948B000C948B007E
:100020000C948B000C948B000C948B000C948B0024
:100030000C948B000C948B000C948B000C948B0014
:100040000C9463120C948B000C9421130C94FB12EF
:100050000C948B000C948B000C948B000C948B00F4
:100060000C94CB130C948B0000000000240027009C
:100070002A0000000008000201000003040700003D
:1000800000000000000000000000230026002900FE
:1000900000000000250028002B00040404040404D0
:1000A0000404020202020202030303030303010227
:1000B00004081020408001020408102001020408F6
:1000C0001020FA14051D11241FBECFEFD8E0DEBFAB
:1000D000CDBF11E0A0E0B1E0EAECF1E402C0059090
:1000E0000D92A23DB107D9F724E0A2EDB1E001C025
:1000F0001D92AB34B207E1F710E0C2E6D0E004C0D5
:100100002197FE010E948A1FC136D107C9F70E94BC
:1001100039160C94D8200C9400008230910538F0E8
:10012000880F991F880F991F05970197F1F7089578
:1001300008950895833081F028F4813099F0823059
:10014000A9F008958730A9F08830C9F08430B1F45F
:10015000809180008F7D03C0809180008F77809395
:100160008000089584B58F7784BD089584B58F7D10
:10017000FBCF8091B0008F778093B000089580917D
:10018000B0008F7DF9CF1F93CF93DF93282F30E0FE
:10019000F901EE58FF4F8491F901E255FF4FD491D8
:1001A000F901E656FF4FC491CC23A9F0162F811117
:1001B0000E949A00EC2FF0E0EE0FFF1FE057FF4F78
:1001C000A591B4918FB7F894EC91111108C0D09516
:1001D000DE23DC938FBFDF91CF911F910895DE2B3B
:1001E000F8CFCF93DF9390E0FC01E255FF4F2491CD
:1001F00086569F4FFC0184918823D1F090E0880FB0
:10020000991FFC01E859FF4FA591B491FC01E057FB
:10021000FF4FC591D49161110EC09FB7F8948C9196
:10022000E22FE0958E238C932881E223E8839FBF01
:10023000DF91CF9108958FB7F894EC91E22BEC9376
:100240008FBFF6CF3FB7F8948091AF029091B00284
:10025000A091B102B091B20226B5A89B05C02F3F74
:1002600019F00196A11DB11D3FBFBA2FA92F982FDC
:100270008827BC01CD01620F711D811D911D42E0D7
:10028000660F771F881F991F4A95D1F708958F929F
:100290009F92AF92BF92CF92DF92EF92FF926B014B
:1002A0007C010E9422014B015C01C114D104E104D4
:1002B000F104B9F00E942201681979098A099B09A1
:1002C000683E73408105910580F321E0C21AD10890
:1002D000E108F10888EE880E83E0981EA11CB11C8D
:1002E000E4CFFF90EF90DF90CF90BF90AF909F90C2
:1002F0008F9008958091020490910304DC01ED91A8
:10030000FC910084F185E02D0995892B09F4A6C0A4
:1003100060E070E0CB010E944701209120048091B1
:10032000020490910304DC01ED91FC910284F385B9
:10033000E02D21110BC0099580930C048E37D1F666
:10034000809120048F5F80932004D4CF09959091F1
:100350002004E92FF0E0EE5FFB4F82879230A9F096
:100360009930C9F0913099F48F3F89F010922004B0
:1003700081E080932204109225041092240480933B
:1003800026041092270480E00895863079F79F5F55
:1003900090932004AFCF8F3E49F720910E048091B7
:1003A0000D04280F3327331FE0910F04C9018E0F6E
:1003B000911D20911004280F392F311D40911104F7
:1003C00050E0240F351F8091120490E060911304D7
:1003D00070E0762F6627F09114046F0F711D280FBF
:1003E000391F3195219531096217730709F0BECF86
:1003F00010922004E13419F4109227042FC0E093E6
:100400002304542F4427840F951F90932504809331
:100410002404EA53E63108F046C0F0E0EE5EFD4FFA
:100420000C948A1F3F02470228022802510231021F
:100430004F02530251025102510251025102510224
:100440005102510253025102510251025102510212
:1004500085E08093220481E0809326048091260425
:10046000089580FF02C089E0F4CF81FF02C084E0DC
:10047000F0CF83709927892B89F38AE0EACF80FF38
:1004800002C087E0E6CF81FFE9CF82E0E2CF80FFC4
:1004900002C088E0DECF81FFE1CF83E0DACF86E0E3
:1004A000D8CF8BE0D6CF81E0809322041092250430
:1004B00010922404809326049FCF2FB7F894609164
:1004C000AB027091AC028091AD029091AE022FBF51
:1004D00008958F929F92AF92BF92CF92DF92EF9248
:1004E000FF92CF936B017C010E945D024B015C0186
:1004F000C114D104E104F10441F4C0900804D09087
:100500000904E0900A04F0900B040E947A01C82FBD
:10051000811118C00E945D02681979098A099B0936
:10052000C616D706E806F906C0F410922004109209
:100530002204109225041092240481E08093260462
:10054000109227048C2FCF91FF90EF90DF90CF90E7
:10055000BF90AF909F908F90089560E070E0CB01C6
:100560000E944701D2CF80931904272F30E0709367
:100570001B0460931C044091180490911704490FC8
:100580005527551F840F952F911D40911A04840FF4
:10059000911D820F931F680F792F711D71956195C1
:1005A000710970931D0460931E04442379F08091B7
:1005B0002704882359F060E070E0CB010E944701D6
:1005C00060E070E0CB010E946902F1CF80910204EB
:1005D00090910304DC01ED91FC910280F381E02D08
:1005E0004AE050E066E174E009950E945D02609384
:1005F000040470930504809306049093070480918B
:100600001A0491E0811101C090E0909327048111B8
:1006100006C06AE070E080E090E00C944701089525
:10062000CF92DF92EF92FF92F8940E945D026B01ED
:100630007C018091D2019091D301A091D401B0911D
:10064000D501A7019601281B390B4A0B5B0BCA0188
:10065000B9010E94521E20E030E040EF50E40E94B9
:10066000E01E18168CF48091A7029091A8020196C2
:100670009093A8028093A702C092D201D092D30196
:10068000E092D401F092D5017894FF90EF90DF9042
:10069000CF9008950895AF92BF92CF92DF92EF92DC
:1006A000FF920F931F93CF93DF936C017B018B011C
:1006B000040F151FEB015E01AE18BF08C017D1076C
:1006C00059F06991D601ED91FC910190F081E02DF6
:1006D000C6010995892B79F7C501DF91CF911F914B
:1006E0000F91FF90EF90DF90CF90BF90AF90089563
:1006F000FC01538D448D252F30E0842F90E0821B28
:10070000930B541710F0CF96089501970895FC01AC
:10071000918D828D981761F0A28DAE0FBF2FB11D04
:100720005D968C91928D9F5F9F73928F90E008955C
:100730008FEF9FEF0895FC01918D828D981731F016
:10074000828DE80FF11D858D90E008958FEF9FEF6A
:100750000895FC01918D228D892F90E0805C9F4F40
:10076000821B91098F739927089589E093E00E9475
:10077000A90321E0892B09F420E0822F089580E06D
:1007800090E0892B29F00E94B50381110C940000A0
:100790000895FC01A48DA80FB92FB11DA35ABF4F16
:1007A0002C91848D90E001968F739927848FA68970
:1007B000B7892C93A089B1898C91837080648C93C4
:1007C000938D848D981306C00288F389E02D808173
:1007D0008F7D80830895EF92FF920F931F93CF93A5
:1007E000DF93EC0181E0888F9B8D8C8D98131AC06C
:1007F000E889F989808185FF15C09FB7F894EE8953
:10080000FF896083E889F9898081837080648083AF
:100810009FBF81E090E0DF91CF911F910F91FF90FA
:10082000EF900895F62E0B8D10E00F5F1F4F0F73A2
:100830001127E02E8C8D8E110CC00FB607FCFACF5D
:10084000E889F989808185FFF5CFCE010E94C9032F
:10085000F1CFEB8DEC0FFD2FF11DE35AFF4FF0822E
:100860009FB7F8940B8FEA89FB8980818062CFCF94
:10087000CF93DF93EC01888D8823B9F0AA89BB89D7
:10088000E889F9898C9185FD03C0808186FD0DC0C2
:100890000FB607FCF7CF8C9185FFF2CF808185FFE3
:1008A000EDCFCE010E94C903E9CFDF91CF9108952A
:1008B000FC0170E08481893018F0660F771F642B8B
:1008C00082819381892B41F0858190E0982F882740
:1008D000990F9064682B792BCB010895089520918E
:1008E0008102309182022817390771F490917F02BA
:1008F00080918002981741F0E0917F02F0E0E25C85
:10090000FD4F808190E008958FEF9FEF0895089547
:10091000EF92FF920F931F93CF93DF93DC015C96CE
:10092000ED90FC905D97E114F10479F481E090E0A2
:1009300013969C938E93129790E080E0DF91CF9175
:100940001F910F91FF90EF9008955196ED91FC91BA
:10095000529750968C915097982F90950FB75E961E
:100960002C915E97122F127021FD6095F8942081D2
:10097000112319F1282B2083E7012197F1F728E0B3
:10098000462F50E0308160FF1AC0382B3083E701DA
:100990002197F1F7BA0175956795215089F71123D1
:1009A00081F08081892380830FBF5C968D919C911B
:1009B0000197F1F781E090E0C1CF2923DCCF392303
:1009C000E5CF9081892BEFCF209181023091820277
:1009D0002817390761F48091800220917F0290E00E
:1009E000805C9F4F821B91098F739927089590E037
:1009F00080E0089520918102309182022817390702
:100A0000B9F490917F0280918002981789F0E0916B
:100A10007F02F0E0E25CFD4F808120917F0230E0B8
:100A20002F5F3F4F2F73332720937F0290E008956D
:100A30008FEF9FEF0895FC0183858F3F19F061E0F0
:100A40000C94C3000895FC0180819181892B39F0B9
:100A5000A281B3819C9111968C919CBD8DBD8385A3
:100A60008F3F19F060E00C94C3000895BF92CF92BD
:100A7000DF92EF92FF920F931F93CF93DF93EC01DE
:100A800088819981892B81F06EBD0DB407FEFDCF61
:100A90000EB5802FDF91CF911F910F91FF90EF90B6
:100AA000DF90CF90BF9008958885998511E0892BBC
:100AB00009F010E8BB24B394862F812309F0B12CF0
:100AC000F62E2C813D814E815F8160E271EA87E0E4
:100AD00090E00E94AF1DE22E00E0C22ED12CEE204D
:100AE00019F0C6010E948D008A85982F977F09F022
:100AF00044C08D858F3F89F09F2D912381E009F4BB
:100B000080E08B1551F0EF85F8898F89992379F171
:100B10009081892B8083BB24B394E989FA898081F1
:100B2000998D892B8083EE2019F0C6010E948D00DB
:100B30008E858F3F39F0EB89FC898081988D8923E0
:100B400009F0012BE989FA899081898D80958923A3
:100B5000808388859985892B09F067C0110F111151
:100B6000BECF8E858F3F09F094CF0F2D92CF90810D
:100B7000809589238083B12CD0CF8C3099F58D85D9
:100B80008F3F49F0EF85F8898F899F2D912331F1AF
:100B90009081892B8083E989FA899081898D80955C
:100BA00089238083EE2019F0C6010E948D00E98917
:100BB000FA898081998D892B8083EE2019F0C601F6
:100BC0000E948D008E858F3F21F2EB89FC89808108
:100BD000988D892309F4BDCF012BBBCF90818095DF
:100BE0008923D8CFE989FA898081998D892B8083DF
:100BF000EE2019F0C6010E948D008D858F3F49F0CF
:100C0000EF85F8898F899F2D912359F09081892B49
:100C10008083E989FA899081898D809589238083F1
:100C2000D1CF908180958923F3CF169598CF8F925D
:100C30009F92AF92BF92CF92DF92EF92FF920F936B
:100C40001F93CF93DF937C014B016A01B22EA32E39
:100C50000E942305E401C80CD91CCC15DD0569F4FC
:100C6000CB2DDA2D0C0F1D1FC017D10759F06FEFD8
:100C7000C7010E9436058993F7CF6991C7010E9489
:100C80003605EBCFC7010E941B0581E0DF91CF91B4
:100C90001F910F91FF90EF90DF90CF90BF90AF909A
:100CA0009F908F9008958F929F92AF92BF92CF9214
:100CB000DF92EF92FF920F931F93CF93DF937C010C
:100CC000B62EA72E6A0149010E942305E401080DF2
:100CD000191DC017D10761F4CB2DDA2DCC0EDD1E06
:100CE000CC15DD0551F06991C7010E943605F8CF9A
:100CF0006991C7010E943605ECCFC7010E941B0510
:100D000081E0DF91CF911F910F91FF90EF90DF90E5
:100D1000CF90BF90AF909F908F9008952091FB014E
:100D2000260F3327331F21323105ECF42091DF02E7
:100D3000FC0190E080E0243069F082E00895A09109
:100D4000FB012191AC0145525E4FA40FB52FB11D9F
:100D50002C930196861798F38091FB01680F60939E
:100D6000FB0180E0089581E008951092DF0281E0A8
:100D70008093DE021092B90261E082E10E94C3001A
:100D800061E083E10E94C300E9EBF0E080818E7FA7
:100D9000808380818D7F808388E48093B80085E4A0
:100DA0008093BC0008951092B8021092B70210927E
:100DB000E602109208030E94B50688E990E090933D
:100DC000B6028093B50289E990E09093B4028093D3
:100DD000B3020895CF93DF9391E09093DA018823D3
:100DE000B9F0C091B800D091BA008091BC008A7B64
:100DF0008093BC0060E082E10E94C30060E083E178
:100E00000E94C3000E94B506D093BA00C093B800F8
:100E1000DF91CF9108958F929F92AF92BF92CF9220
:100E2000DF92EF92FF920F931F93CF93DF93D091B6
:100E30000803D13208F0D7C0182FC09107030E94D1
:100E400022016B017C018091DF0281116BC082E085
:100E50008093DF021093DE028FEF8093DD02109209
:100E6000DC02D093DB02A7EEB2E0EBEBF2E080E035
:100E7000D81391C01092BA028091BA02CC0FC82B3D
:100E8000C093BA028091B902813009F088C01092F3
:100E9000B9020E9422016B017C018091BA02809309
:100EA000BB008091E1029091E202A091E302B09137
:100EB000E402892B8A2B8B2BA1F00E942201009146
:100EC000E1021091E2022091E3023091E4026C19F8
:100ED0007D098E099F09061717072807390708F4A7
:100EE00042C08091BC0083FDD8CF85EC8093BC00CC
:100EF0000E9422016B017C018091DF02823009F4A3
:100F000050C08091DD028F3F09F46FC08091DD02F7
:100F1000803209F46CC08091DD02803309F469C02D
:100F200084E026C08091E1029091E202A091E30268
:100F3000B091E402892B8A2B8B2B09F484CF0E9479
:100F400022018090E1029090E202A090E302B09032
:100F5000E4026C197D098E099F0986169706A8067A
:100F6000B90608F070CF8091E0020E94EA0685E0A1
:100F70001092E602109208031092E502DF91CF91E1
:100F80001F910F91FF90EF90DF90CF90BF90AF90A7
:100F90009F908F9008959D9191938F5F69CF85EE7B
:100FA000A5CF8091E1029091E202A091E302B0917D
:100FB000E402892B8A2B8B2B09F49ECF0E942201FD
:100FC0000091E1021091E2022091E3023091E402EB
:100FD0006C197D098E099F0906171707280739071D
:100FE00008F08ACFC0CF81E0C3CF80E0C1CF82E0DC
:100FF000BFCF83E0BDCF1F93CF93DF93EA01122FC2
:10100000DC0111968D919C91DC01ED91FC910280A7
:10101000F381E02D0995C817D90729F4812F0E9483
:101020000B0791E0811190E0892FDF91CF911F9103
:101030000895AF92BF92CF92DF92EF92FF920F93FB
:101040001F93CF93DF9300D0CDB7DEB7DC01211122
:1010500003C01A962C911A97253008F043C0519678
:101060004D935D936D937C93549790E080E0E22ED6
:10107000F12C8E159F05B4F41C962C911C97211110
:101080000AC0FD01E80FF91F4587452F562F672F2E
:1010900077270196EECFF701E81BF90BEA0FFB1F4C
:1010A0004487F3CF6D018DE0C80ED11C18969C913A
:1010B000189719968C91199799838A83AD90BC9053
:1010C0001197A114B10409F441C01B960C9110E0D2
:1010D00098012E0D3F1DD50114968D919C9182177C
:1010E000930710F480E016C0F50181819281208180
:1010F00031E03093E502209307031092E60210924C
:1011000008030115110599F421E0A701B601C501F5
:101110000E94FB070F900F90DF91CF911F910F91CD
:10112000FF90EF90DF90CF90BF90AF900895DC01DB
:10113000ED91FC910280F381E02DA801BE016F5F6B
:101140007F4F09950817190769F6DECF1296ED91C2
:10115000FC911397309749F116962D913C91179772
:101160001B960C9110E02330310571F48E7F89833A
:101170009A830F5F1F4F9E012F5F3F4FA701B6015C
:10118000CF010E945306C6CF2115310519F49F7770
:101190009983F1CF2230310511F49068F9CF2130D5
:1011A000310549F79F779064F3CF1496ED91FC9148
:1011B0001597309709F496CF8085882309F492CF4C
:1011C000A680B780A114B10409F48CCF87019601E1
:1011D0001B964C91BE016F5F7F4F81859285F50113
:1011E000099598CFEF92FF921F93CF93DF93CDB7DE
:1011F000DEB765970FB6F894DEBF0FBECDBF7C019A
:10120000162F40E069E00E945804F70142815381A3
:10121000208131811A8A1B8A1C8A1D8A5C834B8338
:101220003A83298323E030E038872F8321E02C871D
:101230009A8789871D862B87412F50E070E060E0F8
:1012400020E0CE0101960E94190865960FB6F89429
:10125000DEBF0FBECDBFDF91CF911F91FF90EF900A
:101260000895CF93DF93EC018B818823A1F08881CF
:1012700091E09093E502809307031092E6021092AA
:10128000080381E00E940B0791E0811190E0892F13
:10129000DF91CF9108950E94D30681E08B83CE0128
:1012A0000E943109982F8111E2CFF1CFE091B8026D
:1012B0008091B702E81730F4F0E0E25EFD4F8081E4
:1012C00090E008958FEF9FEF08959091B80280917C
:1012D000B7022FEF3FEF981748F4E92FF0E0E25EF6
:1012E000FD4F208130E09F5F9093B802C9010895BF
:1012F0008091B7029091B802891B990B0895CF9203
:10130000DF92EF92FF920F931F93CF93DF937C01B5
:10131000CB018A012091E502222389F0EB016B01C8
:10132000C40ED51ECC15DD0569F06991D701ED918C
:10133000FC910190F081E02DC7010995F3CF642F56
:101340000E948E06C801DF91CF911F910F91FF90EF
:10135000EF90DF90CF900895CF93DF931F92CDB79A
:10136000DEB769832091E5022223F9F0209108037A
:10137000203258F021E030E0FC013383228390E0FA
:1013800080E00F90DF91CF9108958091E602E82FE1
:10139000F0E0E951FD4F998190838F5F8093E602E1
:1013A0008093080381E090E0ECCF61E0CE010196EC
:1013B0000E948E06F7CF90E080E00895089508958A
:1013C000CF92DF92EF92FF920E945D026B017C014F
:1013D000E9988AE493E0909303018093020180915D
:1013E000D6019091D701A091D801B091D901A70160
:1013F0009601281B390B4A0B5B0BCA01B9010E94ED
:10140000521E20E030E040EF50E40E94E01E18162B
:10141000BCF4C092D601D092D701E092D801F092EC
:10142000D9018091A902882341F060E086E0FF9015
:10143000EF90DF90CF900C94C30083B78E7F83BF73
:10144000FF90EF90DF90CF900895782F8FE00E946B
:10145000B3020E947A018823E1F31092260480915E
:1014600022048530B1F708952F923F924F925F92F8
:101470006F927F928F929F92AF92BF92CF92DF92A4
:10148000EF92FF920F931F93CF93DF9300D000D082
:10149000CDB7DEB7DC014B01042F18969C9118974D
:1014A00019968C91199799838A832D903C90119766
:1014B0002114310409F43AC11B964C9150E0D1013A
:1014C00014968D919C9184179507C8F4D12C8D2D7D
:1014D0000F900F900F900F90DF91CF911F910F9170
:1014E000FF90EF90DF90CF90BF90AF909F908F9044
:1014F0007F906F905F904F903F902F900895F101F3
:10150000808191E09093E502809307031092E602B8
:101510001092080320E0BE016F5F7F4FC1010E945F
:10152000FB07D82E882391F2802F90E09C838B8339
:10153000B12CA12C01E0AB81BC81AA16BB0638F608
:10154000F101848195817D01EA18FB088E159F05C4
:1015500008F47C01D101CC900E9422012B013C01B6
:101560008091DF02811172C01E2D113208F010E24D
:101570000093DF0221E08B819C818E199F09A816C0
:10158000B90608F420E02093DE02BFEFB093DD023D
:101590001092DC028FEF810F8093DB020093BA027E
:1015A0008091BA02CC0CC82AC092BA028091B902CA
:1015B000813009F092C01092B9020E9422012B01E1
:1015C0003C018091BA028093BB008091E10290912E
:1015D000E202A091E302B091E402892B8A2B8B2BCB
:1015E000A1F00E9422012091E1023091E20240919B
:1015F000E3025091E40264197509860997092617D8
:1016000037074807590708F442C08091BC0083FDA2
:10161000D8CFE5ECE093BC000E9422012B013C01F5
:101620008091DF02813009F45CC08091DC02811777
:1016300010F41091DC02ABEBB2E0EEE1F2E080E0FE
:10164000811751F19D9191938F5FFACF8091E102C3
:101650009091E202A091E302B091E402892B8A2BDF
:101660008B2B09F47DCF0E9422012091E102309161
:10167000E2024091E3025091E4026419750986097F
:101680009709261737074807590708F069CF80914F
:10169000E0020E94EA0610E01092B8021093B7022E
:1016A0001E151F0409F012CF34016A0C7B1C2301A4
:1016B000C201861997098E159F05A8F5D1011196CB
:1016C0008D919C91DC01ED91FC910284F385E02DDC
:1016D0000995F20181932F01EBCFF5EEF093BC0059
:1016E0009BCF8091E1029091E202A091E302B09140
:1016F000E402892B8A2B8B2B09F492CF0E942201C2
:101700002091E1023091E2024091E3025091E40223
:101710006419750986099709261737074807590775
:1017200008F07ECFB4CFAE0CBF1C05CF1296ED9162
:10173000FC911397309749F116962D913C9117978C
:1017400010E01B964C9150E02330310571F481601C
:1017500089839A834F5F5F4F9401BE016F5F7F4F14
:10176000CF010E941706D82EB2CE2115310519F4EB
:1017700090689983F1CF2230310511F49F77F9CF2A
:101780002130310549F7906CF4CF1496ED91FC911E
:101790001597309709F49ACE8085882309F496CE60
:1017A000E480F580E114F10409F490CE10E09B018F
:1017B0001B964C91BE016F5F7F4F81859285F7012B
:1017C0000995D1CFCF93DF93EC01BC01635F7F4FCD
:1017D0004A850E94340A882301F14A8550E030E0AE
:1017E00020E060E070E0CB0124173507CCF4982F9F
:1017F000872F762F6627EC85E1110AC0FA01E21BDC
:10180000F30BEC0FFD1FE4856E2B2F5F3F4FECCFEA
:10181000FE01E20FF31FE585F7CF6FEF7FEFCB01FE
:10182000DF91CF9108958F929F92AF92BF92CF9206
:10183000DF92EF92FF920F931F93CF93DF93EC0110
:101840004A015B01888199810E94E20B2A8101E0B3
:1018500010E002C0000F111F2A95E2F70150110994
:10186000012E000C220B330BAB81680179010A2E8B
:1018700004C0CC0CDD1CEE1CFF1C0A94D2F7C094F3
:10188000D094E094F094C622D722E822F922E8818D
:10189000F981B901A801482159216A217B2104C09D
:1018A000440F551F661F771FAA95D2F74C295D2953
:1018B0006E297F292285CF01DF91CF911F910F9152
:1018C000FF90EF90DF90CF90BF90AF909F908F9060
:1018D0000C9419087F928F929F92AF92BF92CF92F1
:1018E000DF92EF92FF920F931F93CF93DF93CDB7C9
:1018F000DEB7E2970FB6F894DEBF0FBECDBF7C0116
:10190000062F77247394683008F4712C472D60E01B
:10191000C7010E945804F70182809380A080B180A3
:101920001FA218A619A61AA6998E888EBF8AAE8AFB
:1019300023E0C22ED12CDD8ECC8E11E019A39F8F17
:101940008E8F1AA218A3472D66E0C7010E94580483
:101950001A8A1B8A1C8A1D8A9C828B82BA82A9825F
:10196000D886CF821C879A8789871D861B87077038
:10197000CE01469698AB8FA719AB0AAB45979CA7AB
:101980008BA71DA70EA740E050E0BA018E960E94DB
:10199000130C40E050E0BA01CE018B960E94130C6C
:1019A000E2960FB6F894DEBF0FBECDBFDF91CF91A8
:1019B0001F910F91FF90EF90DF90CF90BF90AF906D
:1019C0009F908F907F900895FC01862F918D9F3F6F
:1019D00021F0CF014C960C946A0C95899F3F19F425
:1019E00061E00C94F1000895CF93DF93CDB7DEB79B
:1019F00069970FB6F894DEBF0FBECDBFE8EDF3E0F8
:101A0000428D538D208D318D1A8A1B8A1C8A1D8A26
:101A10005C834B833A83298318861F8221E02C87BD
:101A200040E250E05A8749871D862B879E012F5F31
:101A30003F4F3F8B2E8B24E0288F298FAC0170E025
:101A400060E0CE0146960E94130C69960FB6F8949A
:101A5000DEBF0FBECDBFDF91CF910895EF92FF9211
:101A60000F931F93CF93DF93CDB7DEB769970FB670
:101A7000F894DEBF0FBECDBF7C01162F042F41E0CE
:101A8000683008F440E069E0C7010E945804F7019B
:101A900042815381208131811A8A1B8A1C8A1D8AC6
:101AA0005C834B833A83298323E030E038872F839C
:101AB00021E02C879A8789871D862B87CE01019686
:101AC0009F8B8E8B288F1770198F402F50E070E0FE
:101AD00060E045960E94130C69960FB6F894DEBF3D
:101AE0000FBECDBFDF91CF911F910F91FF90EF906F
:101AF0000895EF92FF920F931F93CF93DF93EC0122
:101B0000862F998D9F3F51F0CE014C96DF91CF915A
:101B10001F910F91FF90EF900C942E0D9D89642FD3
:101B20009F3F51F1588D21E030E0B90102C0660FAE
:101B3000771F8A95E2F7CB01413031F5852B888FED
:101B400060E08F890E94C300088DFD88EE8818E050
:101B5000602F661F6627661F8E2D0E94C300000F30
:101B600061E08F2D0E94C30060E08F2D0E94C300B2
:101B7000115071F761E08F89DF91CF911F910F9123
:101B8000FF90EF900C94C30080958523D8CFCF931E
:101B9000DF93EC0140E06E810E94790D41E06E819F
:101BA000CE010E94790D40E06E81CE010E94790D38
:101BB0008BE891E00197F1F7DF91CF910895AF9213
:101BC000BF92CF92DF92EF92FF920F931F93CF932A
:101BD000DF93CDB7DEB765970FB6F894DEBF0FBEC3
:101BE000CDBF8C01FC01818D9801295F3F4F7901A8
:101BF000A62EB12CD12CC12C8F3F09F482C06801D4
:101C00003CE1C30ED11C40E069E0C6010E945804CB
:101C1000F801468D578D248D358D1A8A1B8A1C8AB2
:101C20001D8A5C834B833A83298323E030E0388725
:101C30002F8321E02C879A8789871D862B87CE01E9
:101C400001960E94E20BF70130E020E0EE24E394DD
:101C5000F12C4191C701042E01C0880F0A94EAF7C4
:101C600080956823C501022E02C0959587950A9438
:101C7000E2F78170992701C0880F4A95EAF7682B2F
:101C80002F5F3F4F2430310521F7F80186819701FE
:101C900002C0220F331F8A95E2F7B22EB094B6220B
:101CA0006B2DC6010E94F208F8018681B70101C0C0
:101CB000660F8A95EAF7B62A6B2DC6010E94F208D4
:101CC000F801868101C0EE0C8A95EAF7E0946E2D4A
:101CD0006B21C6010E94F2088BE891E00197F1F7B1
:101CE00065960FB6F894DEBF0FBECDBFDF91CF91E2
:101CF0001F910F91FF90EF90DF90CF90BF90AF902A
:101D00000895F70161917F01C8010E94E40CA501CB
:101D10000C2C02C0559547950A94E2F74170F701E3
:101D200031976081C8010E94790DFFEFCF1ADF0A59
:101D300024E0C216D10429F7C8010E94C70DD0CFF4
:101D4000CF92DF92EF92FF920F931F93CF93DF9387
:101D5000EC01F62E6C810E94790D6D816F3F21F0B0
:101D600040E0CE010E94790D0F2D10E08F8584FF99
:101D70002CC06E0187E0C80ED11CF12CE12CF601BD
:101D800061916F01CE010E94E40CA8010E2C02C0EB
:101D9000559547950A94E2F74170F60131976081B5
:101DA000CE010E94790DFFEFEF1AFF0A88E0E816D6
:101DB000F10429F7CE01DF91CF911F910F91FF9090
:101DC000EF90DF90CF900C94C70DB80184E075952B
:101DD00067958A95E1F7CE010E94DF0D6F2DCE0148
:101DE000DF91CF911F910F91FF90EF90DF90CF90F7
:101DF0000C94DF0D40E0682F86EA93E00C94A00E6F
:101E0000CF93DF93CDB7DEB728970FB6F894DEBF38
:101E10000FBECDBF98E0E1E1F1E0DE011196019047
:101E20000D929A95E1F79091B903961708F46FEF28
:101E300070E0660F771F21E030E02C0F3D1F620F2E
:101E4000731FFB019081890F806828960FB6F89464
:101E5000DEBF0FBECDBFDF91CF910C94FA0E81E0B3
:101E60000E94FA0E8BE39FE10197F1F7089541E09C
:101E70000E94A00E81E090E008950F931F93CF93EE
:101E8000DF93EC01888199810E94E20BAB01BC01D8
:101E90002A8181E090E002C0880F991F2A95E2F71D
:101EA0000197092E000CAA0BBB0B2B8104C0769561
:101EB0006795579547952A95D2F78C019D01042384
:101EC000152326233723C901B801DF91CF911F9134
:101ED0000F9108958F929F92AF92BF92CF92DF920F
:101EE000EF92FF920F931F93CF93DF93CDB7DEB79F
:101EF000CD54D1090FB6F894DEBF0FBECDBF8C0113
:101F0000FC01208D318D88EA2115310509F488EE18
:101F1000F801428D538D1CAE1DAE1EAE1FAE5EA7E6
:101F20004DA73CA72BA71AAA19AAFF24F394FEAA2F
:101F300090E09CAB8BAB1FAA86E08DAB46E0BE0168
:101F4000605C7F4FCE018B960E94340A22968EAD44
:101F50009FAD2297F8019383828324968EAD9FAD27
:101F600024979583848326968EAD9FAD269797837D
:101F70008683228D338D808D918D1A8A1B8A1C8ACF
:101F80001D8A3C832B839A83898318861F82FC8653
:101F900033E2A32EB12CBA86A9861D86FB86CE011C
:101FA00001966C019F8B8E8B82E0888F84E0898FF5
:101FB0004E0196E1890E911CC4010E943D0FE62E50
:101FC000F801428D538D208D318D1FA218A619A6C0
:101FD0001AA6598F488F3F8B2E8B1D8E1C8EF9A20F
:101FE00080E290E09F8F8E8F1AA2F8A22C969FAE6F
:101FF0008EAE2C972D96FFAE2D9783E02E968FAF49
:102000002E971A8A1B8A1C8A1D8A5C834B833A830B
:10201000298318861F82FC86BA86A9861D86FB86C0
:102020002896DFAECEAE28972996FFAE29972A963E
:102030008FAF2A97CE01865B9F4F0E943D0F4B01C9
:102040005C01CE018A5B9F4F0E943D0F8A948928D4
:102050008A288B2809F47DC06130710581059105BE
:1020600009F47EC081E064E0EE2069F021E068E0E0
:10207000E21649F092E060E1E91629F0E3E061E060
:10208000EE1201C060E3823009F06CC0669566957F
:10209000C12CD12C2AE7E22E26E4F22E70E090E04B
:1020A00080E00E94541E4B015C01F8016281738143
:1020B000072E000C880B990B0E94541EA701960155
:1020C0000E94E01DA50194010E94E51EF8016087B1
:1020D00071878287938764817581072E000C880B36
:1020E000990B0E94541EA70196010E94E01DA501B4
:1020F00094010E94E51EF80164877587868797879B
:1021000066817781072E000C880B990B0E94541E64
:10211000A70196010E94E01DA50194010E94E51E01
:10212000F801608B718B828B938BC35BDF4F0FB693
:10213000F894DEBF0FBECDBFDF91CF911F910F91FD
:10214000FF90EF90DF90CF90BF90AF909F908F90D7
:102150000895613071058105910511F080E083CF0C
:1021600082E081CF813049F0660F660FC12CD12CFF
:102170009AE7E92E98E4F92E91CFC12CD12C8AE769
:10218000E82E87E4F82E8ACFCF93C82F0E946D1DCA
:1021900065E070E00E94761F60E08530910520F4D4
:1021A0008D5D9E4FFC01608182E0C33099F040F468
:1021B00062E0C13071F063E0C23059F061E009C003
:1021C00065E0C53031F067E0C53018F066E0C63034
:1021D000A9F781E0CF910C94250AFB010190002022
:1021E000E9F73197AF01461B570BDC01ED91FC91EC
:1021F0000280F381E02D09948F929F92AF92BF925B
:10220000EF92FF920F931F93CF93DF93CDB7DEB77B
:10221000A1970FB6F894DEBF0FBECDBF7C01FA01C7
:10222000CB0119A2223008F42AE08E010F5D1F4F66
:10223000822E912CB12CA12CBF01A50194010E94EA
:10224000AF1DF901CA016A300CF5605DD8016E93CB
:102250008D01232B242B252B79F790E080E010971C
:1022600021F0BD01C7010E94ED10A1960FB6F894B0
:10227000DEBF0FBECDBFDF91CF911F910F91FF90B9
:10228000EF90BF90AF909F908F900895695CDECFE4
:102290000F931F93CF938C01C62F0E942F0F60E0E6
:1022A00080E00E94000FB80186EA93E00E94ED10E2
:1022B00061E080E00E94000F68E771E086EA93E049
:1022C0000E94ED104C2F50E070E060E02AE086EABA
:1022D00093E0CF911F910F910C94FC10CF93C82FD6
:1022E00061E080E00E94000F60E871E086EA93E020
:1022F0000E94ED1061E087E00E94000F4C2F50E03B
:1023000070E060E02AE086EA93E0CF910C94FC1044
:1023100085ED8093BC008091E1029091E202A09152
:10232000E302B091E4020796A11DB11D23E0B6952A
:10233000A795979587952A95D1F72091BC0024FD04
:1023400003C01092DF0208954091E1025091E20231
:102350006091E3027091E402452B462B472B69F311
:102360000097A105B10541F02AE22A95F1F700C0D6
:102370000197A109B109E1CF8091E0020C94EA062E
:102380000C9440200F931F93CF93DF938C01EB01AC
:1023900088E2FB0111928A95E9F74BE050E06BE887
:1023A00071E0CE010E94C9201B8681E090E0A0E090
:1023B000B0E08C879D87AE87BF87F80142A153A10B
:1023C00064A175A1488B598B6A8B7B8B8C8B9D8B01
:1023D000AE8BBF8B1CA21DA21EA21FA2188E198E2F
:1023E0001A8E1B8E1C8E1D8E1E8E1F8E18A219A279
:1023F0001AA21BA2DF91CF911F910F9108950F9305
:102400001F93CF93DF938C01EB01FB01349680E2A5
:10241000DF011D928A95E9F784E290E0A0E0B0E048
:1024200088839983AA83BB83F80182A193A1A4A185
:10243000B5A18C839D83AE83BF8381E090E0A0E053
:10244000B0E088879987AA87BB87188A198A1A8A71
:102450001B8AC8010E946A0F2AE038EE4CE151E461
:10246000D80118966D917D918D919C911B970E943A
:10247000E51E6C8B7D8B8E8B9F8B2AE038EE4CE1BA
:1024800051E4F80164857585868597850E94E51E6F
:10249000688F798F8A8F9B8F2AE038EE4CE151E468
:1024A000D80150966D917D918D919C9153970E948A
:1024B000E51E6C8F7D8F8E8F9F8F81E0DF91CF9196
:1024C0001F910F9108951F920F920FB60F92112432
:1024D0002F933F938F939F93AF93BF938091AB02C2
:1024E0009091AC02A091AD02B091AE023091AA02DF
:1024F00023E0230F2D3758F50196A11DB11D209320
:10250000AA028093AB029093AC02A093AD02B09369
:10251000AE028091AF029091B002A091B102B09151
:10252000B2020196A11DB11D8093AF029093B0023B
:10253000A093B102B093B202BF91AF919F918F91DE
:102540003F912F910F900FBE0F901F90189526E886
:10255000230F0296A11DB11DD2CF1F920F920FB66D
:102560000F9211242F933F934F935F936F937F9319
:102570008F939F93AF93BF93EF93FF93E0910201EB
:10258000F09103010995FF91EF91BF91AF919F9158
:102590008F917F916F915F914F913F912F910F900C
:1025A0000FBE0F901F9018951F920F920FB60F92AB
:1025B00011242F933F934F935F936F937F938F9348
:1025C0009F93AF93BF93EF93FF93E0910001F0913E
:1025D00001010995FF91EF91BF91AF919F918F916B
:1025E0007F916F915F914F913F912F910F900FBE0F
:1025F0000F901F9018951F920F920FB60F921124F3
:102600002F933F934F935F936F937F938F939F93FA
:10261000AF93BF93EF93FF9389E093E00E94C903C8
:10262000FF91EF91BF91AF919F918F917F916F91AA
:102630005F914F913F912F910F900FBE0F901F9080
:1026400018951F920F920FB60F9211242F938F930C
:102650009F93EF93FF93E0911903F0911A03808108
:10266000E0911F03F091200382FD1BC090818091B7
:1026700022038F5F8F7320912303821741F0E09133
:102680002203F0E0E75FFC4F958F80932203FF91D8
:10269000EF919F918F912F910F900FBE0F901F90F0
:1026A00018958081F4CF1F920F920FB60F921124CC
:1026B0002F933F934F935F936F937F938F939F934A
:1026C000AF93BF93EF93FF93E0918102F091820269
:1026D000309749F0A685B7858585968D91FF14C002
:1026E0009C918923A1F4FF91EF91BF91AF919F91AC
:1026F0008F917F916F915F914F913F912F910F90AB
:102700000FBE0F901F9018959C91892361F7A389A4
:10271000B4899C918589809589238C938689978932
:102720000197F1F7608D718DA685B785558538E0E5
:1027300020E0CB010197F1F7822F90E095958795E6
:10274000282F4C91452309F02068315091F7868D50
:1027500081FD20958091800290E001968F739927EA
:1027600030917F02381799F0A0918002B0E0A25C0E
:10277000BD4F2C9380938002828D938D0197F1F74A
:10278000A389B4898C919589892B8C93ACCF868D44
:102790008160868FF1CF1F920F920FB60F92112496
:1027A0002F933F934F935F936F937F938F939F9359
:1027B000AF93BF93EF93FF938091B900887F8036EA
:1027C00009F44AC0F0F5883209F4A7C018F5803141
:1027D00009F49BC0B8F4882309F4F9C0883009F4DF
:1027E00094C0FF91EF91BF91AF919F918F917F9195
:1027F0006F915F914F913F912F910F900FBE0F906E
:102800001F901895883109F488C0803251F7809361
:10281000DD0214C0803409F49DC040F48033B9F364
:102820008833F9F68093DD0285ECB0C0803509F479
:1028300085C0883509F496C0883499F60E948811BD
:10284000D0CF883909F48CC038F5883729F050F496
:10285000883611F0803729F683E08093DF021092EA
:102860001D0257C0883809F47BC0803919F08038C0
:1028700009F0B7CF80911D02803208F071C0E0915D
:102880001D0281E08E0F80931D028091BB00F0E05D
:10289000E350FE4F80833DC0803B39F0E0F4803A46
:1028A00009F479C0883A09F09CCF84E08093DF0274
:1028B0001092FC011092FB01E091B502F091B6027A
:1028C00009958091FB0181110FC081E08093FB018C
:1028D0001092DB0109C0803C09F4A6CF883C09F4C2
:1028E000A3CF883B09F07DCFE091FC0181E08E0F02
:1028F0008093FC01F0E0E552FE4F80818093BB00A5
:102900009091FC018091FB0129C08091BA028093D3
:10291000BB0085EC8093BC0064CF9091DC02809179
:10292000DB02981758F5E091DC0281E08E0F80936E
:10293000DC02F0E0E554FD4F8081E9CFE091DC025C
:1029400081E08E0F8093DC028091BB00F0E0E554C3
:10295000FD4F80839091DC028091DB029817C8F2D2
:1029600085E8D8CFE091DC0281E08E0F8093DC0215
:102970008091BB00F0E0E554FD4F80838091DE0242
:1029800081115CCF81E08093B90284EA8093BC001E
:102990001092DF0226CF85EC8093BC001092DF02FC
:1029A00080911D02803230F4E0911D02F0E0E3508E
:1029B000FE4F108260911D0270E0E091B302F09131
:1029C000B4028DEF91E0099510921D020ACF10928A
:1029D000DD0234CF8091040190910501833391058C
:1029E00038F488EC90E090930501809304010895F9
:1029F000C297F9CF10920C0310920B0388EE93E06C
:102A0000A0E0B0E080930D0390930E03A0930F031A
:102A1000B09310032CE231E030930A0320930903B2
:102A200025EC30E0309316032093150324EC30E0BE
:102A3000309318032093170320EC30E030931A03EF
:102A40002093190321EC30E030931C0320931B03E7
:102A500022EC30E030931E0320931D0326EC30E07F
:102A60003093200320931F0310922203109223031C
:102A700010922403109225031092CF031092CE03DC
:102A80008093D0039093D103A093D203B093D30348
:102A90002EE331E03093CD032093CC0310922B042E
:102AA00010922A0480932C0490932D04A0932E045A
:102AB000B0932F048AE691E0909329048093280430
:102AC00010923F0410923E04109241041092400470
:102AD0001092430410924204109245041092440450
:102AE000609146046E7F6D7F6093460466956170C9
:102AF00081E068278BE00E94C30061E08BE00E94C8
:102B0000F100E9EBF0E0E491E0933804E5EAF0E06D
:102B1000E491F0E0EE0FFF1FE057FF4F8591949195
:102B200090933A048093390460E08AE00E94F100B7
:102B30008091460481FD04C061E08AE00E94C300E8
:102B40008AE080933404E8EBF0E0E491E09335040C
:102B5000E4EAF0E0E491F0E0EE0FFF1FEA57FF4FE8
:102B600025913491309337042093360444EF51E09B
:102B700060E070E0409308045093090460930A04F5
:102B800070930B04E9E1F1E0A6E1B4E001900D924D
:102B90008A95E1F71092200492E09093210410921C
:102BA0002604109227042CE531E03093D9032093BA
:102BB000D8031092F1031092F0031092F3031092D5
:102BC000F2038FEF8093F5038093F6038093F7036E
:102BD0008093F8034FEF5FEFBA014093FA035093ED
:102BE000FB036093FC037093FD0340E251EA67E04E
:102BF00070E04093FE035093FF03609300047093D2
:102C000001042CEC33E03093ED032093EC0310929D
:102C1000A9031092A80340E551E05093A703409305
:102C2000A6031092C3031092C2031092C503109220
:102C3000C40348E04093C60347E24093BF03309388
:102C4000C1032093C0031092B50321E02093AA038F
:102C50008093AB039093AC0383E08093AD0384E057
:102C60008093AE0385E08093AF0386E08093B0034A
:102C70000895CF93DF93CDB7DEB7C354D1090FB614
:102C8000F894DEBF0FBECDBF789484B5826084BD5A
:102C900084B5816084BD85B5826085BD85B5816060
:102CA00085BD80916E00816080936E0010928100DE
:102CB0008091810082608093810080918100816099
:102CC000809381008091800081608093800080915A
:102CD000B10084608093B1008091B00081608093E6
:102CE000B00080917A00846080937A0080917A00AD
:102CF000826080937A0080917A00816080937A006C
:102D000080917A00806880937A001092C100E091EF
:102D10001903F0911A0382E08083E0911503F0918A
:102D200016031082E0911703F09118038FEC808353
:102D300010922103E0911D03F0911E0386E0808331
:102D4000E0911B03F0911C03808180618083E091FE
:102D50001B03F0911C03808188608083E0911B033A
:102D6000F0911C03808180688083E0911B03F091C7
:102D70001C0380818F7D808360E08EE00E94F100E3
:102D800060E084E00E94F10061E08CE00E94F100CC
:102D900061E08BE00E94F10060E085E00E94F100BC
:102DA00061E08CE10E94F10061E08BE10E94F100A2
:102DB00060E08DE00E94F10060E081E00E94F1009F
:102DC00061E082E00E94F10060E083E00E94F10097
:102DD00061E08CE00E94C30061E088E00E94C300D3
:102DE00062E971E089E093E00E94ED1040910601F4
:102DF00050E070E060E02AE089E093E00E94FC107F
:102E00006AE971E089E093E00E94ED1080E193E0CF
:102E10009093010180930001809169008C7F816013
:102E200080936900E89A80EE99E090930301809383
:102E3000020180916900837F846080936900E99A30
:102E4000B8E1DB2ED092F90383E38093F403E090A2
:102E5000EC03F090ED03E114F10409F407C186E0FE
:102E600090E00E94A41F8C01DC01DC921296FC927F
:102E7000EE92119713961C92139780E290E01596AC
:102E80009C938E9314971093F1030093F0030E9488
:102E9000D30681E0F8018383C8010E9431098111C2
:102EA0008FC12091F2033091F3038091F003909150
:102EB000F1031A8A1B8A1C8A1D8A3C832B839A83FE
:102EC000898318861F8281E08C8723E230E03A876D
:102ED00029871D868B87CE0101969F8B8E8B82E082
:102EE000888F84E0898F40E050E0BA01CE01469699
:102EF0000E94130C6FE070E080E090E00E944701B8
:102F000084E090E00E94F40C10924304109242047A
:102F1000109241041092400410923F0410923E041B
:102F20008DE991E09093450480934404909134049A
:102F3000963108F047C02DEB30E030933F042093EA
:102F40003E042BE931E030934104209340042CE20D
:102F500031E030934304209342042091680084E0E0
:102F6000983048F031E09E3008F430E081E001C054
:102F7000880F3A95EAF7822B809368002DE630E0BF
:102F8000983050F02BE630E09E3030F02CE630E008
:102F9000963110F030E020E030933C0420933B0465
:102FA000292F30E0983008F085C281E001C0880FF9
:102FB0009A95EAF780933D048091440490914504EA
:102FC0000197F1F78091420490914304892B49F1D4
:102FD000E0918102F091820224E0E832F20709F1E7
:102FE000309739F0A389B4899C918589809589238C
:102FF0008C93809146048E7F8093460410928002C9
:1030000010927F0288E294E0909382028093810282
:10301000E0913B04F0913C04808190913D04892B28
:10302000808388E294E0909303048093020481E01B
:1030300080931A0470E060E08CE00E94B30260EDBF
:1030400077E080E090E00E94690268EC70E080E048
:1030500090E00E944701109226048091220484305F
:1030600009F435C2893009F432C2FFCFF090F5037C
:10307000FFEFFF1609F4A4C01091F8038090FE033F
:103080009090FF03A0900004B09001048CE190E0C8
:103090001F3F09F050C10E94A41F6C018091EE03F4
:1030A0009091EF03D6011B96FC921B971E961C93E2
:1030B0001E971D961C931D971C961C931C9711968A
:1030C0009C938E935B961C9282E090E00E94A41FDA
:1030D000FC0140E052E16AE770E090E0841695065A
:1030E000A606B70640F476956795579547959F5F76
:1030F0009630A1F797E0892F806A86958083909516
:1031000091709183D6011396FC93EE931297F6017A
:1031100084829582A682B78281E090E09187808741
:103120001286D092F303C092F2030091F203109141
:10313000F30361E08F2D0E94F10061E0D8011B963E
:103140008C910E94C300F80180819181892B09F440
:103150008CC1FFB6F89480917E02811127C0E4EA09
:10316000F0E08491E8EBF0E09491E82FF0E0EE0FCE
:10317000FF1FE859FF4FA591B491EC91E92321F489
:1031800061E08AE00E94C30061E08AE00E94F100F1
:103190008CB580618CBD8CB580648CBD61E08DE0A8
:1031A0000E94F10061E08BE00E94F10080917E02BC
:1031B0008F5F80937E02FFBE81E0D8015B968C9387
:1031C0002091F2033091F3038091F0039091F10389
:1031D0001A8A1B8A1C8A1D8A3C832B839A838983C3
:1031E00018861F8211E01C878FE090E09A878987FC
:1031F0001D861B87FE0131967F01CF010E94E20BE5
:103200008091F40386134DCE2091F2033091F303A5
:103210008091F0039091F1031CAE1DAE1EAE1FAE67
:103220003EA72DA79CA78BA71AAA19AA1EAB80E2BE
:1032300090E09CAB8BAB1FAA1DAB20E047E050E0B9
:1032400060E070E0CE018B960E94190887E090E064
:103250000E94F40C2091F2033091F3038091F0036B
:103260009091F1031FA218A619A61AA6398F288FCC
:103270009F8B8E8B1D8E1C8E19A383E290E09F8FF7
:103280008E8F1AA218A320E048E850E060E070E0BA
:10329000CE0146960E9419082091F2033091F30363
:1032A0008091F0039091F1031A8A1B8A1C8A1D8A6F
:1032B0003C832B839A83898318861F821C8782E232
:1032C00090E09A8789871D861B872296FFAEEEAE17
:1032D000229723961FAF239784E024968FAF2497DD
:1032E00041E050E060E070E0CE01805C9F4F0E94C2
:1032F000130C2091F2033091F3038091F00390912D
:10330000F1031A8A1B8A1C8A1D8A3C832B839A83A9
:10331000898318861F821C878FE190E09A878987AE
:103320001D861B8720E040E850E060E070E0C701A8
:103330000E941908B6CD0E94A41FDC012091F6035B
:103340008091F70311961C921E9213961C921E9266
:1033500012971B96FC921B971C961C931C971E960B
:103360008C931E971D962C931D974F2D0F2C000CA0
:10337000550BFA01E656FF4FE491F0E0EE0FFF1F08
:10338000E057FF4F6591749156967C936E935597D5
:10339000FA01E255FF4FE4915A96EC935A972F3F6A
:1033A000C9F0022E000C330BF901E656FF4FE491F1
:1033B000F0E0EE0FFF1FE057FF4F459154915096FC
:1033C0005C934E931F97F901E255FF4FE491579696
:1033D000EC9357978F3FC9F0082E000C990BFC0116
:1033E000E656FF4FE491F0E0EE0FFF1FEA57FF4F64
:1033F0002591349154963C932E935397FC01E255BA
:10340000FF4FE4915896EC935897812F110F990B29
:10341000FC01E656FF4FE491F0E0EE0FFF1FE0578E
:10342000FF4F2591349152963C932E935197FC0176
:10343000E255FF4FE4915996EC93599714968D926B
:103440009D92AD92BC92179781E090E019969C9363
:103450008E9318971A961C921A975B961C925B97FC
:10346000B093F303A093F20360CE61E084850E94E1
:10347000F100F80182858B7FD1F460E084850E94A1
:10348000C300F80185858F3F49F061E00E94F1009B
:1034900061E0D8011D968C910E94C300F8018685D9
:1034A0008F3F09F489CE60E00E94F10085CE61E093
:1034B0008485E5CF9E3040F42850310981E001C079
:1034C000880F2A95EAF776CD2E503109F7CF84EF91
:1034D00091E0A0E0B0E08093080490930904A093E9
:1034E0000A04B0930B046AE070E086E00E94B30225
:1034F00070E060E087E00E94B30262E070E089E083
:103500000E94B30268EC70E080E090E00E94470106
:103510000E94D306F090BF038FEFF81609F4F4C0B1
:10352000C090C003D090C10386E090E00E94A41F29
:103530008C01DC01FC921296DC92CE9211971396CC
:103540001C92139780E290E015969C938E931497AB
:103550001093C3030093C2030E94D30681E0F801D5
:103560008383C8010E943109882309F483C067E07E
:1035700082EC93E00E946A0C41E067E082EC93E009
:103580000E942E0D0DEA13E061EBE62E63E0F62EAD
:10359000D8016D918D0186EA93E00E94E40CE0165B
:1035A000F106B1F76091AA0382EC93E00E946A0CE5
:1035B0006091AC0382EC93E00E946A0C8091B503A9
:1035C00088608093B50382E08093B9031092BA03B8
:1035D0008BE39DE00197F1F740E06091AA0386EA52
:1035E00093E00E94790D40E06091AC0386EA93E09D
:1035F0000E94790D6091AB036F3F29F040E086EAAD
:1036000093E00E94790D8091B50384FDA5C063E02D
:1036100086EA93E00E94DF0D0BE416E4C8010197EF
:10362000F1F763E086EA93E00E94DF0DC80101979D
:10363000F1F763E086EA93E00E94DF0D83E592E014
:103640000197F1F762E086EA93E00E94DF0D809136
:10365000B50380620E94FA0E84E08093B6038CE08A
:103660000E94FA0E0E942F0F82E08093B70386E03B
:103670000E94FA0E8091BF038F3F21F48091BB031B
:103680008F3F31F041E067E086EA93E00E94790DD8
:103690000E942F0F60E080E00E94000F6DE971E052
:1036A00086EA93E00E94ED1061E080E00E94000F46
:1036B0006AEA71E086EA93E00E94ED10789404E0F3
:1036C00010E09AE7A92E90E0B92E26EB822E20E09A
:1036D000922E32EAE32E30E0F32E40E0C42E40E09A
:1036E000D42E56E0752EE0910601E73008F08BC02D
:1036F000F0E0E358F44E0C948A1FE01B1C1C6F1C76
:10370000B41CC21BF11CFB1C8091BB0361E08F3F0A
:1037100091F08091BC030E94F10061E08091BB03B5
:103720000E94F10061E08091BD030E94F10080E8F9
:103730008093BE0343CF8091AA030E94F100809141
:10374000AB038F3F19F061E00E94F10061E08091CE
:10375000AC030E94F10032CF80620E94FA0E8BE42B
:1037600096E40197F1F78091B50380620E94FA0E0A
:1037700083E592E00197F1F78091B50380620E94A2
:10378000FA0E65CF0E942F0F60E080E00E94000FCC
:1037900063EB71E086EA93E00E94ED1083B7817FCE
:1037A000846083BF83B7816083BF88958091A902BD
:1037B0000E946E110E946D1DB8010E94761F82C08A
:1037C00080E00E94C410609104017091050190E0B6
:1037D00080E00E9447018091A7029091A80205977E
:1037E00040F18091A9028F5F8093A9020E946E111F
:1037F0008091A902833698F085E0809306011092AB
:10380000A8021092A702C114D10409F46CCF0E943F
:10381000B503882309F467CF0E94000064CF0E949B
:103820006D1DB8010E94761F809306010E94EA1464
:10383000E6CF70920601E3CF81E00E94C410609150
:1038400004017091050190E080E00E94470188ED3D
:1038500093E00E946A0F63E872E088ED93E00E94B3
:10386000FF118091DE039091DF0397FF03C09195D4
:103870008195910981159044CCF48091DC0390915D
:10388000DD0397FF03C091958195910981159044BF
:103890006CF48091DA039091DB0397FF03C091955C
:1038A00081959109811590440CF498C08091A902EA
:1038B0008F5F8093A9020E946E118091A9028336C6
:1038C00020F085E0809306019ECF0E946D1DB80117
:1038D0000E94761F809306010E94EA1494CF82E032
:1038E0000E94C410609104017091050190E080E095
:1038F0000E94470161E085E00E94C300F5018491C8
:10390000F4016490F7015490552059F181110E94FF
:103910009A00E52DF0E0EE0FFF1FEA57FF4FA5914B
:10392000B4918C916822E9F08091A9028F5F809315
:10393000A9020E946E118091A902833640F085E0B1
:103940008093060160E085E00E94C3005CCF0E9486
:103950006D1DB8010E94761F809306010E94EA1433
:10396000F1CF70920601EECF83E00E94C410609107
:1039700004017091050190E080E00E944701809170
:10398000A7029091A802892B49F588ED93E00E9447
:103990006A0F8091DE039091DF0397FF03C091953A
:1039A0008195910981159044CCF48091DC0390912C
:1039B000DD0397FF03C0919581959109811590448E
:1039C0006CF48091DA039091DB0397FF03C091952B
:1039D00081959109811590440CF4ECCE709206010A
:1039E00012CF6091A9028FEB91E00E94481185E00F
:1039F0000E94C410FFCF6091A90288EC91E00E9460
:103A0000481186E00E94C410FFCF8AE691E09093AF
:103A10002904809328048091810290918202885227
:103A2000944071F4E0913B04F0913C0490818091CA
:103A30003D04809589238083109282021092810236
:103A400008958F929F92AF92BF92CF92DF92EF92A2
:103A5000FF92CF93DF93EC01688179818A819B810A
:103A6000611571058105910521F464E279ED8BE51D
:103A700097E02DE133EF41E050E00E947D1D4901C8
:103A80005A019B01AC01A7EAB1E40E949C1D6B01A5
:103A90007C01ACEEB4EFA50194010E94AA1DDC01EB
:103AA000CB018C0D9D1DAE1DBF1DB7FF03C001973F
:103AB000A109B04888839983AA83BB839F77DF914C
:103AC000CF91FF90EF90DF90CF90BF90AF909F90FD
:103AD0008F9008950E94211D089587E091E00E9433
:103AE000211D0895B0E0A0E08093070190930801A4
:103AF000A0930901B0930A010895052E97FB1EF4C7
:103B000000940E94941D57FD07D00E94AF1D07FC32
:103B100003D04EF40C94941D50954095309521950A
:103B20003F4F4F4F5F4F08959095809570956195E9
:103B30007F4F8F4F9F4F08950E94D11DA59F900DDD
:103B4000B49F900DA49F800D911D11240895B7FF7F
:103B50000C949C1D0E949C1D821B930B0895A1E256
:103B60001A2EAA1BBB1BFD010DC0AA1FBB1FEE1FF7
:103B7000FF1FA217B307E407F50720F0A21BB30B42
:103B8000E40BF50B661F771F881F991F1A9469F7BE
:103B900060957095809590959B01AC01BD01CF011A
:103BA0000895A29FB001B39FC001A39F700D811D16
:103BB0001124911DB29F700D811D1124911D089536
:103BC0000E94F41D0C94A61E0E949F1E58F00E9495
:103BD000981E40F029F45F3F29F00C948F1E51117C
:103BE0000C94DA1E0C94951E0E94B71E68F399235C
:103BF000B1F3552391F3951B550BBB27AA276217E9
:103C00007307840738F09F5F5F4F220F331F441FF5
:103C1000AA1FA9F335D00E2E3AF0E0E832D0915029
:103C20005040E695001CCAF72BD0FE2F29D0660F16
:103C3000771F881FBB1F261737074807AB07B0E859
:103C400009F0BB0B802DBF01FF2793585F4F3AF05F
:103C50009E3F510578F00C948F1E0C94DA1E5F3F46
:103C6000E4F3983ED4F3869577956795B795F795E5
:103C70009F5FC9F7880F911D9695879597F90895CD
:103C8000E1E0660F771F881FBB1F62177307840769
:103C9000BA0720F0621B730B840BBA0BEE1F88F778
:103CA000E0950895E89409C097FB3EF490958095BF
:103CB000709561957F4F8F4F9F4F9923A9F0F92FF2
:103CC00096E9BB279395F695879577956795B79570
:103CD000F111F8CFFAF4BB0F11F460FF1BC06F5F56
:103CE0007F4F8F4F9F4F16C0882311F096E911C068
:103CF000772321F09EE8872F762F05C0662371F089
:103D000096E8862F70E060E02AF09A95660F771F9C
:103D1000881FDAF7880F9695879597F9089597F990
:103D20009F6780E870E060E008959FEF80EC089561
:103D300000240A941616170618060906089500248A
:103D40000A9412161306140605060895092E039404
:103D5000000C11F4882352F0BB0F40F4BF2B11F478
:103D600060FF04C06F5F7F4F8F4F9F4F089557FDD7
:103D70009058440F551F59F05F3F71F04795880FD9
:103D800097FB991F61F09F3F79F087950895121670
:103D900013061406551FF2CF4695F1DF08C016161C
:103DA00017061806991FF1CF8695710561050894CD
:103DB0000895E894BB2766277727CB0197F90895E4
:103DC0000E94521F08F48FEF08950E94F81E0C9471
:103DD000A61E0E94981E38F00E949F1E20F0952378
:103DE00011F00C948F1E0C94951E11240C94DA1E65
:103DF0000E94B71E70F3959FC1F3950F50E0551FB9
:103E0000629FF001729FBB27F00DB11D639FAA272F
:103E1000F00DB11DAA1F649F6627B00DA11D661F7E
:103E2000829F2227B00DA11D621F739FB00DA11D9F
:103E3000621F839FA00D611D221F749F3327A00D59
:103E4000611D231F849F600D211D822F762F6A2FF5
:103E500011249F5750409AF0F1F088234AF0EE0F5A
:103E6000FF1FBB1F661F771F881F91505040A9F787
:103E70009E3F510580F00C948F1E0C94DA1E5F3F1C
:103E8000E4F3983ED4F3869577956795B795F795C3
:103E9000E7959F5FC1F7FE2B880F911D969587953B
:103EA00097F90895990F0008550FAA0BE0E8FEEF67
:103EB00016161706E807F907C0F012161306E407EE
:103EC000F50798F0621B730B840B950B39F40A26E7
:103ED00061F0232B242B252B21F408950A2609F4C5
:103EE000A140A6958FEF811D811D089597FB072E98
:103EF00016F4009407D077FD09D00E94901F07FCAC
:103F000005D03EF4909581959F4F089570956195E9
:103F10007F4F0895EE0FFF1F0590F491E02D099457
:103F2000AA1BBB1B51E107C0AA1FBB1FA617B707DF
:103F300010F0A61BB70B881F991F5A95A9F78095FB
:103F40009095BC01CD0108950F931F93CF93DF93FC
:103F50008230910510F482E090E0E0914904F09104
:103F60004A0430E020E0B0E0A0E0309799F4211559
:103F7000310509F44AC0281B390B24303105D8F526
:103F80008A819B816115710589F1FB01938382838D
:103F9000FE0111C0408151810281138148175907E8
:103FA000E0F04817590799F4109761F012960C93B6
:103FB000129713961C933296CF01DF91CF911F91E8
:103FC0000F9108950093490410934A04F4CF2115EA
:103FD000310551F04217530738F0A901DB019A016E
:103FE000BD01DF01F801C1CFEF01F9CF90934A0481
:103FF00080934904CDCFFE01E20FF31F819391938B
:104000002250310939832883D7CF2091470430913A
:104010004804232B41F420910D0130910E0130937F
:1040200048042093470420910B0130910C01211585
:10403000310541F42DB73EB740910F015091100169
:10404000241B350BE0914704F0914804E217F30775
:10405000A0F42E1B3F0B2817390778F0AC014E5FF8
:104060005F4F2417350748F04E0F5F1F50934804E9
:1040700040934704819391939FCFF0E0E0E09CCF81
:10408000CF93DF930097E9F0FC01329713821282FD
:10409000A0914904B0914A04ED0130E020E010976E
:1040A000A1F420813181820F931F20914704309128
:1040B00048042817390709F061C0F0934804E093D9
:1040C0004704DF91CF910895EA01CE17DF07E8F5A5
:1040D0004A815B819E0141155105B1F7E901FB83DE
:1040E000EA8349915991C40FD51FEC17FD0761F47C
:1040F000808191810296840F951FE90199838883BD
:10410000828193819B838A83F0E0E0E012968D9117
:104110009C9113970097B9F52D913C911197CD0182
:104120000296820F931F209147043091480428176C
:10413000390739F6309751F510924A041092490424
:10414000B0934804A0934704BCCFD383C28340817B
:104150005181840F951FC817D90761F44E5F5F4FD7
:1041600088819981480F591F518340838A819B819F
:10417000938382832115310509F0B0CFF0934A046F
:10418000E09349049ECFFD01DC01C0CF138212826F
:10419000D7CFFB01DC014150504048F001900D9217
:1041A0000020C9F701C01D9241505040E0F708952A
:1041B00010E0C2E6D0E004C0FE010E948A1F2196F2
:0A41C000C336D107C9F7F894FFCF0A
:1041CA004A034A038813040100000000004B0480DC
:1041DA000000004000140054007EFF0600010000A9
:1041EA000000EF010203040500000000EB034B038B
:1041FA0078033804A90387039B0300000000AC0975
:10420A007F09DB098704780965095609000000005F
:10421A00370F4B03DB096E0400000000DE09C011F2
:10422A00DF09FF11C2110000000088044B03DB09FB
:10423A008704E404FA046F0453636F72653A20003A
:10424A0053636F72653A20202020004C495333444F
:10425A00480053746174653A20000D0A005265677C
:10426A00756C61722053686F770053636F72653A99
:10427A002030005072657373205374617274005950
:10428A006F752057696E2100596F75204C6F7365E1
:02429A00210001
:00000001FF
